:020000040000FA
:100000000C9489000C94B1000C94B1000C945E0D1A
:100010000C945E0D0C945E0D0C94B1000C94B10028
:100020000C94B1000C94B1000C94B1000C94F50E3A
:100030000C94B1000C94B1000C94B1000C94B1007C
:100040000C94140D0C94B1000C94E20C0C94BC0CA8
:100050000C94B1000C94B1000C94B1000C94B1005C
:100060000C94D60D0C94B100084AD73B3BCE016EE0
:1000700084BCBFFDC12F3D6C74319ABD56833DDAFF
:100080003D00C77F11BED9E4BB4C3E916BAAAABE0E
:10009000000000803F05A84CCDB2D44EB93836A937
:1000A000020C50B9918688083CA6AAAA2ABE000074
:1000B00000803F0000000000240027002A0000000C
:1000C0000008000201000003040700000000000017
:1000D00000000000000023002600290000000000AE
:1000E000250028002B000404040404040404020274
:1000F00002020202030303030303010204081020A7
:100100004080010204081020010204081020F60FAC
:10011000231411241FBECFEFD8E0DEBFCDBF11E006
:10012000A0E0B1E0E6EEF2E302C005900D92A83B3C
:10013000B107D9F723E0A8EBB1E001C01D92A43CC0
:10014000B207E1F710E0C8E8D0E004C02197FE0153
:100150000E942C18C738D107C9F70E94ED100C94E3
:1001600066190C9400008F929F92AF92BF92FF92FB
:100170000F931F93CF93DF93F090BD032BE02F15C8
:1001800008F44CC02091BF0308E512E0021B1109DE
:1001900027FD1395000F111F000F111F2091BE03A3
:1001A000C8E8D0E0C21BD10927FDD395CC0FDD1FD5
:1001B000CC0FDD1F4E010D2E000CAA08BB089801C4
:1001C000012E000C440B550B281939094A095B090B
:1001D000DC010E94691424EB30E040E050E00E9412
:1001E0003F14820E931EA41EB51E8C169D062CF085
:1001F000E801801691060CF4E4012297CC0FDD1F74
:100200002FB7F8948F2D90E0FC01EE0FFF1FE80F41
:10021000F91FEF59FC4FD283C1832FBFDF91CF91DC
:100220001F910F91FF90BF90AF909F908F90089576
:1002300008950895AF92BF92CF92DF92EF92FF920E
:100240000F931F93CF93DF936C017B018B01040FFE
:10025000151FEB015E01AE18BF08C017D10759F09A
:100260006991D601ED91FC910190F081E02DC601DC
:100270000995892B79F7C501DF91CF911F910F91D6
:10028000FF90EF90DF90CF90BF90AF900895FC016A
:10029000538D448D252F30E0842F90E0821B930BEB
:1002A000541710F0CF96089501970895FC01918D91
:1002B000828D981761F0A28DAE0FBF2FB11D5D9694
:1002C0008C91928D9F5F9F73928F90E008958FEF36
:1002D0009FEF0895FC01918D828D981731F0828DEA
:1002E000E80FF11D858D90E008958FEF9FEF089541
:1002F000FC01918D228D892F90E0805C9F4F821BA5
:1003000091098F739927089584EC92E00E947801F7
:1003100021E0892B09F420E0822F089580E090E00D
:10032000892B29F00E94840181110C94000008950A
:10033000FC01A48DA80FB92FB11DA35ABF4F2C915A
:10034000848D90E001968F739927848FA689B78951
:100350002C93A089B1898C91837080648C93938D48
:10036000848D981306C00288F389E02D80818F7DEB
:1003700080830895EF92FF920F931F93CF93DF93A3
:10038000EC0181E0888F9B8D8C8D98131AC0E889D1
:10039000F989808185FF15C09FB7F894EE89FF89A0
:1003A0006083E889F98980818370806480839FBF3E
:1003B00081E090E0DF91CF911F910F91FF90EF903E
:1003C0000895F62E0B8D10E00F5F1F4F0F7311274E
:1003D000E02E8C8D8E110CC00FB607FCFACFE88989
:1003E000F989808185FFF5CFCE010E949801F1CF78
:1003F000EB8DEC0FFD2FF11DE35AFF4FF0829FB7FD
:10040000F8940B8FEA89FB8980818062CFCFCF93EC
:10041000DF93EC01888D8823B9F0AA89BB89E8892C
:10042000F9898C9185FD03C0808186FD0DC00FB6D2
:1004300007FCF7CF8C9185FFF2CF808185FFEDCF50
:10044000CE010E949801E9CFDF91CF91089590E00D
:10045000FC01E254FF4F2491FC01E650FF4F349120
:10046000FC01EA51FF4FE491EE23C9F0222339F059
:10047000233001F1A8F4213019F1223029F1F0E004
:10048000EE0FFF1FE452FF4FA591B4918FB7F89480
:10049000EC91611126C030953E233C938FBF0895A7
:1004A0002730A9F02830C9F0243049F78091800026
:1004B0008F7D03C0809180008F7780938000DFCF95
:1004C00084B58F7784BDDBCF84B58F7DFBCF8091E2
:1004D000B0008F778093B000D2CF8091B0008F7D35
:1004E000F9CF3E2BDACFCF93DF9390E0FC01E650BB
:1004F000FF4F24918A519F4FFC0184918823D1F0B2
:1005000090E0880F991FFC01EC54FF4FA591B49126
:10051000FC01E452FF4FC591D49161110EC09FB709
:10052000F8948C91E22FE0958E238C932881E2231E
:10053000E8839FBFDF91CF9108958FB7F894EC9136
:10054000E22BEC938FBFF6CF1F93CF93DF93182F3F
:10055000EB0161E00E947302209739F460E0812F83
:10056000DF91CF911F910C942702CF3FD10511F459
:1005700061E0F5CFE12FF0E0E254FF4FE491E3308A
:1005800031F140F4E130B1F0E230E1F0C038D105B2
:100590007CF7E4CFE73029F1E83059F1E430B1F7E6
:1005A00080918000806280938000D0938B00C09304
:1005B0008A0004C084B5806884BDC7BDDF91CF9137
:1005C0001F91089584B5806284BDC8BDF7CF809126
:1005D0008000806880938000D0938900C093880059
:1005E000EDCF8091B00080688093B000C093B300DD
:1005F000E5CF8091B00080628093B000C093B400DA
:10060000DDCF3FB7F89480915E0290915F02A09198
:100610006002B091610226B5A89B05C02F3F19F07A
:100620000196A11DB11D3FBFBA2FA92F982F882772
:10063000BC01CD01620F711D811D911D42E0660F4D
:10064000771F881F991F4A95D1F708958F929F921F
:10065000AF92BF92CF92DF92EF92FF924B015C017B
:100660000E9401036B017C010E9401036C197D094A
:100670008E099F09683E734081059105A8F321E02A
:10068000821A9108A108B10888EEC80E83E0D81E2E
:10069000E11CF11C81149104A104B10429F7FF901D
:1006A000EF90DF90CF90BF90AF909F908F90089584
:1006B00020916402309165022817390771F49091F6
:1006C000620280916302981741F0E0916202F0E0CB
:1006D000E35EFD4F808190E008958FEF9FEF0895D6
:1006E0000895EF92FF920F931F93CF93DF93DC0156
:1006F0005C96ED90FC905D97E114F10479F481E053
:1007000090E013969C938E93129790E080E0DF9197
:10071000CF911F910F91FF90EF9008955196ED9119
:10072000FC91529750968C915097982F90950FB7B7
:100730005E962C915E97122F127021FD6095F894B1
:100740002081112319F1282B2083E7012197F1F74C
:1007500028E0462F50E0308160FF1AC0382B3083EC
:10076000E7012197F1F7BA0175956795215089F74F
:10077000112381F08081892380830FBF5C968D9146
:100780009C910197F1F781E090E0C1CF2923DCCF64
:100790003923E5CF9081892BEFCF209164023091EE
:1007A00065022817390771F4809163022091620273
:1007B00090E0805C9F4F821B910960E470E00E9492
:1007C0000418089590E080E008952091640230912B
:1007D000650228173907B9F490916202809163028B
:1007E000981789F0E0916202F0E0E35EFD4F8081AE
:1007F0002091620230E02F5F3F4F2F733327209309
:10080000620290E008958FEF9FEF08950895089594
:100810002091FA01260F3327331F21323105ECF4E2
:100820002091BE02FC0190E080E0243069F082E07B
:100830000895A091FA012191AC0146525E4FA40F98
:10084000B52FB11D2C930196861798F38091FA016C
:10085000680F6093FA0180E0089581E00895109296
:10086000BE0281E080939D021092980261E082E1D5
:100870000E94270261E083E10E942702E9EBF0E099
:1008800080818E7F808380818D7F808388E48093C8
:10089000B80085E48093BC000895CF93DF9391E086
:1008A0009093D9018823B9F0C091B800D091BA00D3
:1008B0008091BC008A7B8093BC0060E082E10E9452
:1008C000270260E083E10E9427020E942F04D09358
:1008D000BA00C093B800DF91CF910895CF92DF9214
:1008E000EF92FF920F931F93CF93DF93D82FC62FD2
:1008F000613208F098C00E9401036B017C01809175
:10090000BE0281116BC081E08093BE0280939D0284
:100910009FEF90939C0210929B029C0F90939A02DF
:100920008093990280919902DD0FD82BD093990280
:1009300080919802813009F078C0109298020E944C
:1009400001036B017C01809199028093BB0080912F
:10095000C0029091C102A091C202B091C302892B42
:100960008A2B8B2BA1F00E9401030091C0021091F1
:10097000C1022091C2023091C3026C197D098E0917
:100980009F09061717072807390708F448C0809100
:10099000BC0083FDD8CF85EC8093BC000E9401038E
:1009A0006B017C018091BE02813009F440C08091CE
:1009B0009B028C1710F4C0919B02E8E7F2E0AEE9CD
:1009C000B2E080E08C1355C08C2FDF91CF911F9146
:1009D0000F91FF90EF90DF90CF9008958091C0022B
:1009E0009091C102A091C202B091C302892B8A2BBF
:1009F0008B2B09F484CF0E9401030091C002109157
:100A0000C1022091C2023091C3026C197D098E0986
:100A10009F09061717072807390708F070CF80913C
:100A2000BF020E944D04C0E0CFCF85EEB5CF8091CC
:100A3000C0029091C102A091C202B091C302892B61
:100A40008A2B8B2B09F4AECF0E9401030091C002C8
:100A50001091C1022091C2023091C3026C197D092C
:100A60008E099F09061717072807390708F09ACF3C
:100A7000D6CF91919D938F5FA5CFE0916B0280912E
:100A80006A02E81730F4F0E0E256FD4F808190E012
:100A900008958FEF9FEF089590916B0280916A0205
:100AA0002FEF3FEF981748F4E92FF0E0E256FD4FA3
:100AB000208130E09F5F90936B02C901089580917F
:100AC0006A0290916B02891B990B0895CF92DF9275
:100AD000EF92FF920F931F93CF93DF937C01CB0193
:100AE0008A0120916F02222389F0EB016B01C40E71
:100AF000D51ECC15DD0569F06991D701ED91FC910A
:100B00000190F081E02DC7010995F3CF642F0E9479
:100B10000804C801DF91CF911F910F91FF90EF90D2
:100B2000DF90CF900895CF93DF931F92CDB7DEB7BC
:100B3000698320916F022223F9F020916C02203208
:100B400058F021E030E0FC013383228390E080E024
:100B50000F90DF91CF91089580916D02E82FF0E022
:100B6000E754FE4F998190838F5F80936D0280934D
:100B70006C0281E090E0ECCF61E0CE0101960E9432
:100B80000804F7CFCF92DF92EF92FF920F931F935B
:100B9000CF93DF93D0916C0281E0D13208F09CC0FA
:100BA000C0916E020E9401036B017C018091BE0224
:100BB00081116CC082E08093BE0281E080939D022F
:100BC0008FEF80939C0210929B02D0939A02A9EB24
:100BD000B1E0E8E7F2E080E0D8138DC0109299020E
:100BE00080919902CC0FC82BC093990280919802F2
:100BF000813009F084C0109298020E9401036B01B9
:100C00007C01809199028093BB008091C0029091F9
:100C1000C102A091C202B091C302892B8A2B8B2BF7
:100C2000A1F00E9401030091C0021091C102209125
:100C3000C2023091C3026C197D098E099F09061703
:100C400017072807390708F442C08091BC0083FDCC
:100C5000D8CF85EC8093BC000E9401036B017C011E
:100C60008091BE02823009F44CC080919C028F3F7B
:100C700009F469C080919C02803209F466C08091B9
:100C80009C02803309F463C084E026C08091C002D6
:100C90009091C102A091C202B091C302892B8A2B0C
:100CA0008B2B09F483CF0E9401030091C0021091A5
:100CB000C1022091C2023091C3026C197D098E09D4
:100CC0009F09061717072807390708F06FCF80918B
:100CD000BF020E944D0485E010926D0210926C02DA
:100CE00010926F02DF91CF911F910F91FF90EF90C3
:100CF000DF90CF9008959D9191938F5F6DCF85EE9A
:100D0000A9CF8091C0029091C102A091C202B0917E
:100D1000C302892B8A2B8B2B09F4A2CF0E940103DB
:100D20000091C0021091C1022091C2023091C30211
:100D30006C197D098E099F090617170728073907BF
:100D400008F08ECFC4CF80E0C7CF82E0C5CF83E06C
:100D5000C3CF1F93CF93DF93162FC1EBD3E0AC81AA
:100D6000BD819B8121E020936F0290936E021092CF
:100D70006D0210926C02ED91FC9111970190F0813F
:100D8000E02D682FCD0109958C819D81DC01ED91CD
:100D9000FC910190F081E02D612F09958C819D815E
:100DA0000E94C20581E0DF91CF911F910895E1EB90
:100DB000F3E082879387682F8DE390E00E94A90675
:100DC0006EE170E080E090E00C94260390E080E01B
:100DD000089560E08EE00E94730280E480937C00BE
:100DE00080917A00806480937A0080917A0086FDF9
:100DF000FCCF8091780060917900762F682F072EC4
:100E0000000C880B990B0E94351620E030EC4FE760
:100E100054E40E948B1520E030E040EA50E40E9448
:100E2000581720E030E040E850E40E945817089539
:100E3000FF920F931F93CF93DF938C01EB0160E040
:100E40001816190624F011950195110961E0FF2487
:100E5000F3941C161D0624F0D195C195D109F12CEF
:100E600084E00E9427026F2D83E00E942702B801D0
:100E70000F3F110519F014F06FEF70E086E00E944B
:100E8000A402BE01CF3FD10519F014F06FEF70E05E
:100E900085E0DF91CF911F910F91FF900C94A402F8
:100EA000CF93DF93C1EBD3E08C819D812B8131E027
:100EB00030936F0220936E0210926D0210926C02BA
:100EC000DC01ED91FC910190F081E02D60E009954D
:100ED0008C819D810E94C20561E08B810E946E041D
:100EE00010926B0280936A028C819D81DC01ED91EE
:100EF000FC910284F385E02D0995DF91CF9108954F
:100F0000FB0101900020E9F73197AF01461B570B19
:100F1000DC01ED91FC910280F381E02D09948F9228
:100F20009F92AF92BF920F931F93CF93DF93CDB752
:100F3000DEB7A1970FB6F894DEBF0FBECDBF19A2E2
:100F4000423008F44AE08E010F5D1F4F842E912C31
:100F5000B12CA12CA50194010E947114E62FB901B6
:100F6000CA01EA3004F5E05DD801EE938D01232B30
:100F7000242B252B79F790E080E0109729F0BD0114
:100F800084EC92E00E948007A1960FB6F894DEBF31
:100F90000FBECDBFDF91CF911F910F91BF90AF904A
:100FA0009F908F900895E95CDFCF0C94CE188F92BC
:100FB0009F92AF92BF92CF92DF92EF92FF920F93E8
:100FC0001F93CF93DF93CDB7DEB762970FB6F89438
:100FD000DEBF0FBECDBF6C018B01FB01349680E2FA
:100FE000DF011D928A95E9F784E290E0A0E0B0E08D
:100FF000FB0180839183A283B383F601868197816D
:10100000A085B185FB0184839583A683B78383E0A4
:1010100090E0A0E0B0E080879187A287B3872FB7E8
:10102000F8948091700290917102A0917202B09137
:1010300073022FBF808B918BA28BB38B8CE0FE0150
:101040003196DF011D928A95E9F77E01BDE0EB0E36
:10105000F11C86E0F70111928A95E9F7D601149602
:101060008D919C91159713962C9131E030936F02DE
:1010700020936E0210926D0210926C02DC01ED91D1
:10108000FC910190F081E02D6AE10995F6018481DF
:1010900095810E94C20566E0D60113968C910E944C
:1010A0006E0410926B0280936A025E01B3E1AB0E94
:1010B000B11CF60184819581DC01ED91FC910284E3
:1010C000F385E02D0995F70181937F01EA15FB0572
:1010D00081F76D857E85072E000C880B990B0E9489
:1010E000351620E030E040E85DE30E9458174B01E0
:1010F0005C016F857889072E000C880B990B0E9484
:10110000351620E030E040E85DE30E9458176B019F
:101110007C0169897A89072E000C880B990B0E9443
:10112000351620E030E040E85DE30E945817D80112
:1011300054968D929D92AD92BC925797F801C08EB5
:10114000D18EE28EF38E5C966D937D938D939C93FE
:101150005F9781E062960FB6F894DEBF0FBECDBFF9
:10116000DF91CF911F910F91FF90EF90DF90CF9083
:10117000BF90AF909F908F900895CF93DF93CDB79E
:10118000DEB7A4970FB6F894DEBF0FBECDBFBE0189
:101190006F5F7F4F81EB93E00E94D7076D897E8957
:1011A0008F89988DA4960FB6F894DEBF0FBECDBF81
:1011B000DF91CF9108954F925F926F927F928F92BD
:1011C0009F92AF92BF92CF92DF92EF92FF92CF9316
:1011D000DF9300D000D000D0CDB7DEB74B015C016B
:1011E0005E834D838FB7F894209170023091710225
:1011F000409172025091730229833A834B835C833E
:101200008FBF0E94BD080E94BD089B01AC01C501B3
:10121000B4010E94A21425E33AEF4EE85CE30E9479
:1012200058176B017C010E9486152B013C01C701F8
:10123000B6010E94C517A30192010E94221520E069
:1012400030E044E353E40E9458172BED3FE049E4BB
:1012500050E40E948B1520E030E040EE50E40E9404
:1012600058176B017C01AC019B0160E070E08FE7D7
:1012700093E40E94A2140E94FD152B0120E030E0AF
:101280004FE753E4C701B6010E94A3140E94FD1565
:10129000CB01B2010E941807ED81FE8109958823D8
:1012A000C1F02FB7F8948091700290917102A091D3
:1012B0007202B09173022FBF29813A814B815C8108
:1012C000821B930BA40BB50B8A3F9105A105B105B9
:1012D00038F465E070E080E090E00E94260393CF50
:1012E00026960FB6F894DEBF0FBECDBFDF91CF912B
:1012F000FF90EF90DF90CF90BF90AF909F908F9036
:101300007F906F905F904F9008950F931F93CF93AE
:10131000DF938C01EB0188E2FB0111928A95E9F7DA
:101320004BE050E06AE471E0CE010E9457191B8641
:1013300081E090E0A0E0B0E08C879D87AE87BF871A
:10134000F80186819781A085B185888B998BAA8BBE
:10135000BB8B83E090E0A0E0B0E08C8B9D8BAE8BEC
:10136000BF8B1CA21DA21EA21FA2188E198E1A8E40
:101370001B8E1C8E1D8E1E8E1F8E8AE097EDA3E2A3
:10138000BCE388A399A3AAA3BBA3DF91CF911F912C
:101390000F91089585ED8093BC008091C0029091DB
:1013A000C102A091C202B091C3020796A11DB11D56
:1013B00023E0B695A795979587952A95D1F7209123
:1013C000BC0024FD03C01092BE0208954091C002EB
:1013D0005091C1026091C2027091C302452B462B0D
:1013E000472B69F30097A105B10541F025E32A9544
:1013F000F1F700000197A109B109E1CF8091BF0287
:101400000C944D040F931F9361E087E00E94270224
:1014100083E290E00197F1F760E087E00E94270205
:10142000E2E0F1E06491EEEEF0E0E491F0E0EE0F46
:10143000FF1FEE52FF4F859194910CEB14E320E0D7
:1014400030E0462F0E94B10F6115710581059105AD
:1014500049F16F5F7F4F8F4F9F4F9F7061157105EF
:1014600081059105F9F00E94331620E030E04AEA48
:1014700053E40E94581720E030E040E05FE30E9410
:10148000581720E030E44CE156E40E948B1560933D
:1014900074027093750280937602909377021F9185
:1014A0000F91089560E070E086E993E4F0CF4F92E9
:1014B0005F926F927F928F929F92AF92BF92CF92E4
:1014C000DF92EF92FF92CF93DF93CDB7DEB76297B3
:1014D0000FB6F894DEBF0FBECDBF6C017B012D832C
:1014E0003E834F8358870E94BD0825E33AEF4EE8BC
:1014F0005CE30E9458174B015C010E9486152B018A
:101500003C01C501B4010E94C517A30192010E94CC
:10151000221520EE3EE245E652E40E9458179B0158
:10152000AC016D817E818F8198850E94A21425E394
:101530003AEF4EE85CE30E9458174B015C010E94B1
:1015400086152B013C01C501B4010E94C517A301FA
:1015500092010E94221520EE3EE245E652E40E94EE
:10156000581769837A838B839C838091BF0358E5E6
:10157000852E52E0952E881A910887FD9394880C49
:10158000991C880C991C092C000CAA08BB08809196
:10159000BE0378E8472E512C481A510887FD539412
:1015A000440C551C440C551C052C000C660877088F
:1015B0008091BD038F3F09F42AC190E0FC01EE0F3A
:1015C000FF1FE80FF91FEF59FC4F8181928133E033
:1015D000880F991F3A95E1F7B0E0A0E044E0B59597
:1015E000A795979587954A95D1F702969C012F5F0D
:1015F0003F4F032E000C440B550B241935094609A7
:101600005709A4EBB0E00E945E14A50194012419CF
:101610003509460957090E943F143A8B298BC601A8
:10162000DD0CAA0BBB0B89879A87AB87BC87C701E8
:10163000FF0CAA0BBB0B8D879E87AF87B88B0E94D0
:10164000020A4B015C01C0907402D0907502E090D8
:101650007602F09077029601A7010E94A21420E082
:1016600030E046E952E40E944B1787FF02C0640154
:1016700075019601A70160E070E080EE91E40E94A0
:10168000A21420E030E040E251E40E9458176B01C0
:101690007C0169857A858B859C850E9435164B0176
:1016A0005C016D857E858F8598890E9435162B019A
:1016B0003C01A989BA89A035B1050CF0ABC0A701DE
:1016C0009601C501B4010E94A2144B015C01A30163
:1016D0009201C701B6010E94A3140E94FD156B017F
:1016E000C501B4010E94FD15CB01B6010E94180787
:1016F00025E33AEF4EE85CE36D817E818F8198852A
:101700000E9458176B017C010E9486154B015C01F9
:10171000C701B6010E94C517A50194010E942215B8
:101720004B015C010E94BD0825E33AEF4EE85CE303
:101730000E9458176B017C010E9486152B013C0109
:10174000C701B6010E94C517A30192010E9422158C
:101750006B017C0120EE3EE245E652E4C501B40196
:101760000E9458174B015C0120EE3EE245E652E430
:10177000C701B6010E9458179B01AC01C501B40115
:101780000E94A21425E33AEF4EE85CE30E9458174A
:101790006B017C010E9486154B015C01C701B601FB
:1017A0000E94C517A50194010E94221520EE3EE279
:1017B00045E652E40E9458176B017C0120E030E0BE
:1017C000A9010E944B171816A4F520E030E040EA6A
:1017D00050E4C701B6010E94811518160CF097C09D
:1017E000C701B601A70196010E948B150E94FD1545
:1017F0005B0120E030E0A90169817A818B819C81C5
:101800000E948115811153C070E060E068C090E0D3
:1018100080E0ECCEA5019401C701B6010E94A3149B
:101820004B015C01A7019601C301B2010E94A21401
:1018300054CF20E030E040EA50ECC701B6010E94EE
:101840004B1787FF64C020E030E0A901C701B60153
:101850000E9481158823F1F0C701B6019058C2CFCC
:1018600069817A818B819C8132C020E030E048E43C
:1018700052ECC701B6010E944B1787FF48C065E0D4
:1018800070E080E090E00E942603C982DA82EB8259
:10189000FC82D5CE20E030E0A90169817A818B817C
:1018A0009C810E948115B12CA12C882341F320E05A
:1018B00030E0A90169817A818B819C810E944B175C
:1018C000181674F269817A818B819C8190582981E4
:1018D0003A814B815C810E948B150E94FD156A152F
:1018E0007B0569F220E030E0A901C701B6010E9442
:1018F0004B1718160CF0B9CF20E030E048E452E462
:10190000C701B6010E94811518160CF4B8CF629673
:101910000FB6F894DEBF0FBECDBFDF91CF91FF9021
:10192000EF90DF90CF90BF90AF909F908F907F907F
:101930006F905F904F900895CF930E94020AC1E08C
:1019400020E030E040EF51E40E94811518160CF4BD
:10195000C0E08C2FCF910895CF930E94020AC1E07E
:1019600020E030E040EF51E40E94811518160CF49D
:10197000C0E08C2FCF9108951F920F920FB60F9257
:1019800011242F933F934F935F936F937F938F9384
:101990009F93AF93BF93EF93FF9384EC92E00E94E9
:1019A0009801FF91EF91BF91AF919F918F917F919E
:1019B0006F915F914F913F912F910F900FBE0F90BC
:1019C0001F9018951F920F920FB60F9211242F930C
:1019D0008F939F93EF93FF93E091D402F091D50200
:1019E0008081E091DA02F091DB0282FD1BC09081E0
:1019F0008091DD028F5F8F732091DE02821741F0AC
:101A0000E091DD02F0E0EC53FD4F958F8093DD0215
:101A1000FF91EF919F918F912F910F900FBE0F909B
:101A20001F9018958081F4CF1F920F920FB60F92DE
:101A300011242F933F938F939F93AF93BF938091E4
:101A4000700290917102A0917202B0917302309174
:101A50005D0223E0230F2D3758F50196A11DB11D1E
:101A600020935D028093700290937102A0937202A2
:101A7000B093730280915E0290915F02A091600228
:101A8000B09161020196A11DB11D80935E029093F9
:101A90005F02A0936002B0936102BF91AF919F91EA
:101AA0008F913F912F910F900FBE0F901F9018951F
:101AB00026E8230F0296A11DB11DD2CF1F920F92CF
:101AC0000FB60F9211242F933F934F935F936F9311
:101AD0007F938F939F93AF93BF93EF93FF93E09187
:101AE0006402F0916502309749F0A685B785858537
:101AF000968D91FF14C09C918923A1F4FF91EF91E1
:101B0000BF91AF919F918F917F916F915F914F9115
:101B10003F912F910F900FBE0F901F9018959C91A1
:101B2000892361F7A389B4899C918589809589234C
:101B30008C93868997890197F1F7608D718DA685C1
:101B4000B785558538E020E0CB010197F1F7822F6A
:101B500090E095958795282F4C91452309F02068B2
:101B6000315091F7868D81FD20958091630290E040
:101B700001968F73992730916202381799F0A091DE
:101B80006302B0E0A35EBD4F2C9380936302828D0D
:101B9000938D0197F1F7A389B4898C919589892B4D
:101BA0008C93ACCF868D8160868FF1CF1F920F9280
:101BB0000FB60F9211242F933F934F935F936F9320
:101BC0007F938F939F93AF93BF93EF93FF938091F6
:101BD000B900887F803609F44AC0F0F5883209F4EC
:101BE000A7C018F5803109F49BC0B8F4882309F424
:101BF000F9C0883009F494C0FF91EF91BF91AF9183
:101C00009F918F917F916F915F914F913F912F9114
:101C10000F900FBE0F901F901895883109F488C05F
:101C2000803251F780939C0214C0803409F49DC027
:101C300040F48033B9F38833F9F680939C0285EC45
:101C4000B0C0803509F485C0883509F496C0883461
:101C500099F60E94CA09D0CF883909F48CC038F5AA
:101C6000883729F050F4883611F0803729F683E060
:101C70008093BE0210921C0257C0883809F47BC0C2
:101C8000803919F0803809F0B7CF80911C0280327A
:101C900008F071C0E0911C0281E08E0F80931C025D
:101CA0008091BB00F0E0E450FE4F80833DC0803B5C
:101CB00039F0E0F4803A09F479C0883A09F09CCF11
:101CC00084E08093BE021092FB011092FA01E09131
:101CD0006802F091690209958091FA0181110FC0A3
:101CE00081E08093FA011092DA0109C0803C09F486
:101CF000A6CF883C09F4A3CF883B09F07DCFE091C3
:101D0000FB0181E08E0F8093FB01F0E0E652FE4F75
:101D100080818093BB009091FB018091FA0129C0E2
:101D2000809199028093BB0085EC8093BC0064CFC6
:101D300090919B0280919A02981758F5E0919B022E
:101D400081E08E0F80939B02F0E0E858FD4F808188
:101D5000E9CFE0919B0281E08E0F80939B028091FE
:101D6000BB00F0E0E858FD4F808390919B0280918A
:101D70009A029817C8F285E8D8CFE0919B0281E0DB
:101D80008E0F80939B028091BB00F0E0E858FD4FDE
:101D9000808380919D0281115CCF81E080939802C5
:101DA00084EA8093BC001092BE0226CF85EC80931B
:101DB000BC001092BE0280911C02803230F4E0918F
:101DC0001C02F0E0E450FE4F108260911C0270E0B3
:101DD000E0916602F09167028CEF91E00995109214
:101DE0001C020ACF10929C0234CF1F920F920FB6A2
:101DF0000F9211242F933F934F935F936F937F9391
:101E00008F939F93AF93BF93CF93DF93EF93FF9302
:101E10008091B801C0918503D0E087FF24C0109263
:101E20008500109284008091B8018F5F8093B80183
:101E30008091B801082E000C990B8C179D0724F493
:101E40008091B8018C30C4F180918400909185001C
:101E5000049680349C4908F47AC080918400909163
:101E60008500049676C08091B801082E000C990B6D
:101E70008C179D07C4F6E091B8018E2FEE0F990BD9
:101E8000FC01EE0FFF1FE80FF91FEF59FC4F808197
:101E900086FFC9CFE091B8018E2FEE0F990BFC01A0
:101EA000EE0FFF1FE80FF91FEF59FC4F808160E034
:101EB0008F730E942702B7CF209184003091850054
:101EC000E091B8018E2FEE0F990BFC01EE0FFF1F72
:101ED000E80FF91FEF59FC4F81819281820F931F08
:101EE0009093890080938800E091B8018E2FEE0FC7
:101EF000990BFC01EE0FFF1FE80FF91FEF59FC4F84
:101F0000808186FF11C0E091B8018E2FEE0F990BF2
:101F1000FC01EE0FFF1FE80FF91FEF59FC4F808106
:101F200061E08F730E942702FF91EF91DF91CF91C3
:101F3000BF91AF919F918F917F916F915F914F91E1
:101F40003F912F910F900FBE0F901F90189580E436
:101F50009CE990938900809388008FEF8093B8016B
:101F6000E3CFCF92DF92EF92FF920F931F93E82F70
:101F7000F92F05C0015011092109310961F1908142
:101F800096239417B9F305C00150110921093109AD
:101F900011F1908196239413F7CFC12CD12CE12C11
:101FA000F12C0AC08FEFC81AD80AE80AF80A0C15F3
:101FB0001D052E053F0579F080818623841791F356
:101FC0006C2D7D2D8E2D9F2D1F910F91FF90EF90E9
:101FD000DF90CF90089560E070E080E090E01F9186
:101FE0000F91FF90EF90DF90CF9008951092C7026D
:101FF0001092C60288EE93E0A0E0B0E08093C802A1
:102000009093C902A093CA02B093CB022AE031E0B8
:102010003093C5022093C40225EC30E03093D10206
:102020002093D00224EC30E03093D3022093D202EC
:1020300020EC30E03093D5022093D40221EC30E044
:102040003093D7022093D60222EC30E03093D902AD
:102050002093D80226EC30E03093DB022093DA02A2
:102060001092DD021092DE021092DF021092E00266
:102070001092A8031092A7038093A9039093AA0338
:10208000A093AB03B093AC038CE191E09093A603D3
:102090008093A503809185038C3008F09AC091E06D
:1020A000980F909385038093BD0390E0FC01EE0FA1
:1020B000FF1FE80FF91FEF59FC4F88EB9BE092835D
:1020C000818380E491E09093B2038093B10387E32E
:1020D00090E0A0E0B0E08093B7039093B803A093A2
:1020E000B903B093BA0388E28093B40385EA93E01E
:1020F0009093B6038093B5031092890310928803DE
:1021000088EE93E0A0E0B0E080938A0390938B0385
:10211000A0938C03B0938D038EE291E0909387039C
:102120008093860310929D0310929C0310929F034C
:1021300010929E031092A1031092A0031092A30389
:102140001092A2036091A4036E7F6D7F6093A4033D
:102150006695617081E068278BE00E94270261E04C
:102160008BE00E947302E5E0F1E0E491E0939603D6
:10217000E1EFF0E0E491F0E0EE0FFF1FE452FF4FDB
:1021800085919491909398038093970360E08AE0FF
:102190000E9473028091A40381FD04C061E08AE083
:1021A0000E9427028AE080939203E4E0F1E0E49148
:1021B000E0939303E0EFF0E0E491F0E0EE0FFF1F17
:1021C000EE52FF4F859194919093950380939403E1
:1021D00008958FEF8093BD0374CF789484B58260A7
:1021E00084BD84B5816084BD85B5826085BD85B5BB
:1021F000816085BD80916E00816080936E00109239
:1022000081008091810082608093810080918100B3
:102210008160809381008091800081608093800044
:102220008091B10084608093B1008091B0008160A2
:102230008093B00080917A00846080937A008091CE
:102240007A00826080937A0080917A008160809326
:102250007A0080917A00806880937A001092C100A1
:10226000E091D402F091D50282E08083E091D00227
:10227000F091D1021082E091D202F091D30280E17C
:1022800080831092DC02E091D802F091D90286E0BE
:102290008083E091D602F091D702808180618083B3
:1022A000E091D602F091D702808188608083E0912E
:1022B000D602F091D702808180688083E091D602B7
:1022C000F091D70280818F7D80831092A1031092BC
:1022D000A00310929F0310929E0310929D031092F0
:1022E0009C038DE991E09093A3038093A2039091C6
:1022F0009203963108F047C02DEB30E030939D03F8
:1023000020939C032BE931E030939F0320939E039D
:102310002CE231E03093A1032093A00320916800C8
:1023200084E0983048F031E09E3008F430E081E0FD
:1023300001C0880F3A95EAF7822B809368002DE65A
:1023400030E0983050F02BE630E09E3030F02CE654
:1023500030E0963110F030E020E030939A03209383
:102360009903292F30E0983008F022C181E001C0A4
:10237000880F9A95EAF780939B038091A20390912E
:10238000A3030197F1F78091A0039091A103892BFA
:1023900049F1E0916402F091650283E0E638F807C4
:1023A00009F1309739F0A389B4899C91858980958A
:1023B00089238C938091A4038E7F8093A403109231
:1023C00063021092620286E893E090936502809324
:1023D0006402E0919903F0919A03808190919B03AC
:1023E000892B80836AE070E080E090E00E94260301
:1023F00061E084E00E94730261E086E00E94730263
:1024000061E083E00E94730261E085E00E94730254
:1024100061E087E00E94730260E088E00E9473023E
:102420008091BD038C3008F051C061E082E00E94D1
:1024300073028091BD03282F30E0F901EE0FFF1FDA
:10244000E20FF31FEF59FC4F9081907C92609083D4
:102450001092BE031092BF032CE0622F0E94F81767
:10246000829FB001112430E020E0AB01420F531FE6
:10247000FA01EE0FFF1FE40FF51FEF59FC4F90819B
:1024800096FD16C02F5F3F4F2C30310571F781113B
:102490000FC01092800082E080938100109285002E
:1024A00010928400B19A80916F00826080936F00D7
:1024B000E091BD038E2F90E0FC01EE0FFF1FE80FAF
:1024C000F91FEF59FC4F8081806480830E94E906E8
:1024D00061E571E084EC92E00E9480070E94E906C9
:1024E0006B017C01AC019B010E94D11763E671E096
:1024F00081111BC046015701E894B7F82FEF3FEF59
:102500004FE75FE7C501B4010E94D11781115DC09B
:102510002FEF3FEF4FE75FE7C501B4010E94811540
:1025200018160CF052C067E671E084EC92E00E944D
:1025300080076FE671E084EC92E00E94800762E71A
:1025400071E086E893E00E9480076FE671E086E81C
:1025500093E00E94800710926B0210926A02109220
:102560006D0210926C020E942F0488E191E090931A
:1025700069028093680289E191E0909367028093F9
:1025800066020E945007803A09F48FC068EE73E03B
:1025900080E090E00E9426030E945007803A09F4F0
:1025A00084C069E871E084EC92E00E948007FFCF6C
:1025B0009E3040F42850310981E001C0880F2A95EF
:1025C000EAF7D9CE2E503109F7CF2FEF3FEF4FE783
:1025D0005FE4C701B6010E944B1718161CF46BE6A6
:1025E00071E0A3CF2FEF3FEF4FE75FECC701B601DC
:1025F0000E94811587FDF3CF20E030E0A901C701DB
:10260000B6010E94811587FF09C06DE284EC92E05B
:102610000E94BA01F7FAF094F7F8F09426E137EB4C
:1026200041E558E3C701B6010E94A3146B017C0188
:102630000E9404164B015C010E9433169B01AC0101
:10264000C701B6010E94A2146B017C014AE0C501DA
:10265000B4010E948F076EE284EC92E00E94BA01FE
:10266000C5E0C15009F465CF20E030E040E251E41C
:10267000C701B6010E9458174B015C010E94041665
:102680006B01F12CE12C4AE0C701B6010E948F07D3
:10269000C701B6010E9433169B01AC01C501B4010C
:1026A0000E94A2146B017C01DCCF90E080E00E94CC
:1026B000D70660E28FE390E00E94A9066EE170E029
:1026C00080E090E00E9426030E945007803A29F0A3
:1026D0006AE070E080E090E0F5CF62E370E080E0D7
:1026E00090E00E94260360E08EE390E00E94A9063D
:1026F0006AE070E080E090E00E94260360E087E0FE
:1027000090E00E94A90660E08FE390E00E94A90695
:102710006AE070E080E090E00E9426038CE090E0A8
:102720000E94D70664E170E080E090E00E942603FA
:1027300068EE73E080E090E00E942603C091BB0346
:10274000D091BC0390E080E00E94D70669E170E080
:1027500080E090E00E94260360E087E090E00E9425
:10276000A90660E88FE390E00E94A9066AE070E0A5
:1027700080E090E00E942603CE010E94D70664E12B
:1027800070E080E090E00E94260300E010E08BE91A
:1027900090E00E94B30064EF71E080E090E00E945E
:1027A0002603C6E0D0E04CE95CE060E070E0CB01DD
:1027B0000E94DB0820E030E040EA52E46FEF70E076
:1027C00084EB90E00E94570A70E060E090E080E0C7
:1027D0000E94180790E080E00E94B3004CEA5CE0A1
:1027E00060E070E080EA92E40E94DB0820E030E0E4
:1027F000A90164EB70E08FEF90E00E94570A70E04F
:1028000060E090E080E00E9418078BE990E00E9471
:10281000B300219741F670E060E090E080E00E9414
:10282000180760E27EE480E090E00E942603011534
:10283000110509F4ACCF0E948401882309F4A7CFC5
:102840000E940000A4CF8EE291E0909387038093D2
:10285000860380916402909165028658934071F4DA
:10286000E0919903F0919A03908180919B03809568
:102870008923808310926502109264020895052EC8
:1028800097FB1EF400940E94561457FD07D00E9437
:10289000711407FC03D04EF40C94561450954095D7
:1028A000309521953F4F4F4F5F4F089590958095FC
:1028B000709561957F4F8F4F9F4F08950E9493149D
:1028C000A59F900DB49F900DA49F800D911D112484
:1028D0000895B7FF0C945E140E945E14821B930B44
:1028E0000895A1E21A2EAA1BBB1BFD010DC0AA1F51
:1028F000BB1FEE1FFF1FA217B307E407F50720F069
:10290000A21BB30BE40BF50B661F771F881F991FE3
:102910001A9469F760957095809590959B01AC012C
:10292000BD01CF010895A29FB001B39FC001A39F35
:10293000700D811D1124911DB29F700D811D1124F8
:10294000911D08955058BB27AA270E94BA140C94D1
:10295000FD160E94C41638F00E94CB1620F039F400
:102960009F3F19F426F40C949A160EF4E095E7FBB9
:102970000C949416E92F0E94221758F3BA17620795
:1029800073078407950720F079F4A6F50C94441793
:102990000EF4E0950B2EBA2FA02D0B01B90190017A
:1029A0000C01CA01A0011124FF27591B99F0593FBE
:1029B00050F4503E68F11A16F040A22F232F342F06
:1029C0004427585FF3CF469537952795A795F04054
:1029D0005395C9F77EF41F16BA0B620B730B840B69
:1029E000BAF09150A1F0FF0FBB1F661F771F881F21
:1029F000C2F70EC0BA0F621F731F841F48F4879579
:102A000077956795B795F7959E3F08F0B0CF93956A
:102A1000880F08F09927EE0F9795879508950E94E3
:102A2000C41660F080E891E009F49EEF0E94CB1696
:102A300028F040E851E071F45EEF0CC00C949A1657
:102A40000C944417E92FE0780E94221740F3092ED6
:102A5000052AB1F3261737074807590738F00E2E15
:102A600007F8E02569F0E025E0640AC0EF6307F8A5
:102A7000009407FADB01B9019D01DC01CA01AD0137
:102A8000EF930E94A2150E94FD160E9452155F91BD
:102A9000552339F02BED3FE049E450FD49EC0C940F
:102AA000A3140895DF93DD27B92FBF7740E85FE3D4
:102AB0001616170648075B0718F4D92F0E945017FF
:102AC0009F938F937F936F930E94CD17E8E6F0E07A
:102AD0000E949D160E94FD162F913F914F915F918C
:102AE0000E946B17DD2351F09058A2EA2AED3FE0D7
:102AF00049EC5FE3D0785D270E94BA14DF910C9413
:102B0000FD160E94701608F481E008950E94D41604
:102B1000E3950C940E170E949F150C94FD160E94CD
:102B2000CB1658F00E94C41640F029F45F3F29F0FC
:102B30000C94941651110C9445170C949A160E94FB
:102B4000221768F39923B1F3552391F3951B550B85
:102B5000BB27AA2762177307840738F09F5F5F4F70
:102B6000220F331F441FAA1FA9F335D00E2E3AF0AF
:102B7000E0E832D091505040E695001CCAF72BD0C7
:102B8000FE2F29D0660F771F881FBB1F2617370718
:102B90004807AB07B0E809F0BB0B802DBF01FF274A
:102BA00093585F4F3AF09E3F510578F00C9494167D
:102BB0000C9445175F3FE4F3983ED4F386957795E0
:102BC0006795B795F7959F5FC9F7880F911D969503
:102BD000879597F90895E1E0660F771F881FBB1F5F
:102BE000621773078407BA0720F0621B730B840B0C
:102BF000BA0BEE1F88F7E09508950E9404166894BA
:102C0000B1110C94451708950E942A1788F09F5718
:102C100098F0B92F9927B751B0F0E1F0660F771F00
:102C2000881F991F1AF0BA95C9F714C0B13091F0F6
:102C30000E944417B1E008950C944417672F782F31
:102C40008827B85F39F0B93FCCF3869577956795BB
:102C5000B395D9F73EF490958095709561957F4F27
:102C60008F4F9F4F0895E89409C097FB3EF49095CD
:102C70008095709561957F4F8F4F9F4F9923A9F055
:102C8000F92F96E9BB279395F695879577956795E4
:102C9000B795F111F8CFFAF4BB0F11F460FF1BC028
:102CA0006F5F7F4F8F4F9F4F16C0882311F096E9BB
:102CB00011C0772321F09EE8872F762F05C0662369
:102CC00071F096E8862F70E060E02AF09A95660F22
:102CD000771F881FDAF7880F9695879597F90895DB
:102CE000990F0008550FAA0BE0E8FEEF161617061D
:102CF000E807F907C0F012161306E407F50798F085
:102D0000621B730B840B950B39F40A2661F0232B9D
:102D1000242B252B21F408950A2609F4A140A69519
:102D20008FEF811D811D089597F99F6780E870E0FE
:102D300060E008959FEF80EC0895DF93CF931F9399
:102D40000F93FF92EF92DF927B018C01689406C093
:102D5000DA2EEF010E946B17FE01E894A5912591F0
:102D6000359145915591A6F3EF010E94BA14FE01E9
:102D70009701A801DA9469F7DF90EF90FF900F9127
:102D80001F91CF91DF91089500240A94161617061B
:102D900018060906089500240A941216130614064C
:102DA000050608950C949A160E942A17D8F3E89401
:102DB000E0E0BB279F57F0F02AED3FE049EC06C06A
:102DC000EE0FBB0F661F771F881F28F0B23A62070D
:102DD0007307840728F0B25A620B730B840BE395D8
:102DE0009A9572F7803830F49A95BB0F661F771F5B
:102DF000881FD2F790480C94D817092E0394000C22
:102E000011F4882352F0BB0F40F4BF2B11F460FF84
:102E100004C06F5F7F4F8F4F9F4F0895EF93E0FF88
:102E200007C0A2EA2AED3FE049EC5FEB0E94BA142A
:102E30000E94FD160F90039401FC9058E5E9F0E024
:102E40000C94E41757FD9058440F551F59F05F3FFD
:102E500071F04795880F97FB991F61F09F3F79F0BC
:102E600087950895121613061406551FF2CF46953E
:102E7000F1DF08C0161617061806991FF1CF8695C0
:102E80007105610508940895E894BB2766277727A4
:102E9000CB0197F908950E94701608F48FEF0895FA
:102EA0009B01AC0160E070E080E89FE30C948B151F
:102EB0000E946B170C94FD160E94C41638F00E94F5
:102EC000CB1620F0952311F00C9494160C949A16BE
:102ED00011240C9445170E94221770F3959FC1F39B
:102EE000950F50E0551F629FF001729FBB27F00DB8
:102EF000B11D639FAA27F00DB11DAA1F649F66270D
:102F0000B00DA11D661F829F2227B00DA11D621F5B
:102F1000739FB00DA11D621F839FA00D611D221F15
:102F2000749F3327A00D611D231F849F600D211DF9
:102F3000822F762F6A2F11249F5750409AF0F1F07C
:102F400088234AF0EE0FFF1FBB1F661F771F881FE5
:102F500091505040A9F79E3F510580F00C94941673
:102F60000C9445175F3FE4F3983ED4F3869577952C
:102F70006795B795F795E7959F5FC1F7FE2B880F8B
:102F8000911D9695879597F908959F930E94D41661
:102F90000F9007FCEE5F0C940E179B01AC010C9494
:102FA00058170E947016880B990B08959F3F31F0B7
:102FB000915020F4879577956795B795880F911D67
:102FC0009695879597F908959F938F937F936F9325
:102FD000FF93EF939B01AC010E945817EF91FF9173
:102FE0000E949D162F913F914F915F910C9458171D
:102FF000991B79E004C0991F961708F0961B881F4B
:103000007A95C9F78095089597FB072E16F40094DA
:1030100007D077FD09D00E94181807FC05D03EF4B0
:10302000909581959F4F0895709561957F4F089574
:10303000AA1BBB1B51E107C0AA1FBB1FA617B707DE
:1030400010F0A61BB70B881F991F5A95A9F78095FA
:103050009095BC01CD010895EE0FFF1F0590F491EE
:10306000E02D09940F931F93CF93DF938230910546
:1030700010F482E090E0E091C203F091C30330E0ED
:1030800020E0B0E0A0E0309799F42115310509F473
:103090004AC0281B390B24303105D8F58A819B8121
:1030A0006115710589F1FB0193838283FE0111C0D3
:1030B000408151810281138148175907E0F0481778
:1030C000590799F4109761F012960C931297139682
:1030D0001C933296CF01DF91CF911F910F910895EC
:1030E0000093C2031093C303F4CF2115310551F0AF
:1030F0004217530738F0A901DB019A01BD01DF0136
:10310000F801C1CFEF01F9CF9093C3038093C203BD
:10311000CDCFFE01E20FF31F81939193225031092D
:1031200039832883D7CF2091C0033091C103232B4B
:1031300041F420910201309103013093C1032093A7
:10314000C00320910001309101012115310541F4A6
:103150002DB73EB74091040150910501241B350B5A
:10316000E091C003F091C103E217F307A0F42E1B16
:103170003F0B2817390778F0AC014E5F5F4F2417DB
:10318000350748F04E0F5F1F5093C1034093C003B3
:10319000819391939FCFF0E0E0E09CCFCF93DF93BA
:1031A0000097E9F0FC01329713821282A091C203CA
:1031B000B091C303ED0130E020E01097A1F420812D
:1031C0003181820F931F2091C0033091C1032817D2
:1031D000390709F061C0F093C103E093C003DF91A8
:1031E000CF910895EA01CE17DF07E8F54A815B81A8
:1031F0009E0141155105B1F7E901FB83EA8349912D
:103200005991C40FD51FEC17FD0761F4808191819E
:103210000296840F951FE9019983888382819381A7
:103220009B838A83F0E0E0E012968D919C91139746
:103230000097B9F52D913C911197CD010296820F1F
:10324000931F2091C0033091C1032817390739F625
:10325000309751F51092C3031092C203B093C1038B
:10326000A093C003BCCFD383C28340815181840F1C
:10327000951FC817D90761F44E5F5F4F8881998108
:10328000480F591F518340838A819B819383828396
:103290002115310509F0B0CFF093C303E093C203C9
:1032A0009ECFFD01DC01C0CF13821282D7CFFB017C
:1032B000DC014150504048F001900D920020C9F7C8
:1032C00001C01D9241505040E0F7089510E0C8E859
:1032D000D0E004C0FE010E942C182196C938D10705
:1032E000C9F7F894FFCF0000C4038000000000007D
:1032F000BA011A0147010702780156016A0100006C
:10330000000093056605E60670035F054C053D0564
:103310000000000071031A01E6067003CD03E50307
:103320005803000000000604D5070704D7078509E5
:10333000424E4F30353500426174746572792076A3
:103340006F6C746167653A20006E616E00696E662D
:10335000006F7666000D0A00426C7565746F6F74BD
:103360006820496E697469616C697A656421004EF0
:103370006F20424E4F303535206465746563746547
:10338000642C20436865636B20776972696E6720DF
:0E3390006F7220493243204144445221000014
:107E0000112484B714BE81FFF0D085E080938100F7
:107E100082E08093C00088E18093C10086E0809377
:107E2000C20080E18093C4008EE0C9D0259A86E02C
:107E300020E33CEF91E0309385002093840096BBD3
:107E4000B09BFECF1D9AA8958150A9F7CC24DD24C4
:107E500088248394B5E0AB2EA1E19A2EF3E0BF2EE7
:107E6000A2D0813461F49FD0082FAFD0023811F036
:107E7000013811F484E001C083E08DD089C08234E0
:107E800011F484E103C0853419F485E0A6D080C0E4
:107E9000853579F488D0E82EFF2485D0082F10E0AE
:107EA000102F00270E291F29000F111F8ED06801E7
:107EB0006FC0863521F484E090D080E0DECF843638
:107EC00009F040C070D06FD0082F6DD080E0C81688
:107ED00080E7D80618F4F601B7BEE895C0E0D1E017
:107EE00062D089930C17E1F7F0E0CF16F0E7DF06D8
:107EF00018F0F601B7BEE89568D007B600FCFDCFD4
:107F0000A601A0E0B1E02C9130E011968C91119780
:107F100090E0982F8827822B932B1296FA010C0160
:107F200087BEE89511244E5F5F4FF1E0A038BF0790
:107F300051F7F601A7BEE89507B600FCFDCF97BE46
:107F4000E89526C08437B1F42ED02DD0F82E2BD052
:107F50003CD0F601EF2C8F010F5F1F4F84911BD097
:107F6000EA94F801C1F70894C11CD11CFA94CF0C13
:107F7000D11C0EC0853739F428D08EE10CD085E9AC
:107F80000AD08FE07ACF813511F488E018D01DD067
:107F900080E101D065CF982F8091C00085FFFCCF94
:107FA0009093C60008958091C00087FFFCCF809118
:107FB000C00084FD01C0A8958091C6000895E0E648
:107FC000F0E098E1908380830895EDDF803219F02E
:107FD00088E0F5DFFFCF84E1DECF1F93182FE3DFCA
:107FE0001150E9F7F2DF1F91089580E0E8DFEE27F6
:047FF000FF270994CA
:027FFE00040479
:00000001FF
