:100000000C9488000C94B0000C94B0000C94B000D8
:100010000C94B0000C94B0000C94B0000C94B000A0
:100020000C94B0000C94B0000C94B0000C94450BF0
:100030000C94B0000C94B0000C94B0000C94B00080
:100040000C94DC090C94B0000C94AA090C9484095B
:100050000C94B0000C94B0000C94B0000C94B00060
:100060000C94260A0C94B000084AD73B3BCE016E94
:1000700084BCBFFDC12F3D6C74319ABD56833DDAFF
:100080003D00C77F11BED9E4BB4C3E916BAAAABE0E
:10009000000000803F05A84CCDB2D44EB93836A937
:1000A000020C50B9918688083CA6AAAA2ABE000074
:1000B00000803F000000000023002600290000000F
:1000C0000000240027002A0000000000250028006E
:1000D0002B000404040404040404020202020202C9
:1000E00003030303030301020408102040800102FC
:1000F000040810200102040810200000000800027B
:100100000100000304070000000000000000460C8E
:1001100011241FBECFEFD8E0DEBFCDBF11E0A0E0BD
:10012000B1E0ECEFFAE202C005900D92AA3CB107F3
:10013000D9F723E0AAECB1E001C01D92AF36B207B7
:10014000E1F710E0C8E8D0E004C02197FE010E946A
:100150004214C738D107C9F70E94D00C0C947C1503
:100160000C940000E0916803EC3088F5409169033D
:1001700028E830E0241B310947FD3395220F331F57
:10018000220F331F8217930784F040916A0328E5FA
:1001900032E0241B310947FD3395220F331F220F14
:1001A000331F821793070CF49C0122503109220F50
:1001B000331F4FB7F8948E2F90E0FC01EE0FFF1F16
:1001C000E80FF91FE55DFC4F328321834FBF08958F
:1001D00008950895AF92BF92CF92DF92EF92FF926F
:1001E0000F931F93CF93DF936C017B018B01040F5F
:1001F000151FEB015E01AE18BF08C017D10759F0FB
:100200006991D601ED91FC910190F081E02DC6013C
:100210000995892B79F7C501DF91CF911F910F9136
:10022000FF90EF90DF90CF90BF90AF900895FC01CA
:10023000538D448D252F30E0842F90E0821B930B4B
:10024000541710F0CF96089501970895FC01918DF1
:10025000828D981761F0A28DAE0FBF2FB11D5D96F4
:100260008C91928D9F5F9F73928F90E008958FEF96
:100270009FEF0895FC01918D828D981731F0828D4A
:10028000E80FF11D858D90E008958FEF9FEF0895A1
:10029000FC01918D228D892F90E0805C9F4F821B05
:1002A00091098F73992708958EE892E00E94480182
:1002B00021E0892B09F420E0822F089580E090E06E
:1002C000892B29F00E94540181110C94000008959B
:1002D000FC01A48DA80FB92FB11DA35ABF4F2C91BB
:1002E000848D90E001968F739927848FA689B789B2
:1002F0002C93A089B1898C91837080648C93938DA9
:10030000848D981306C00288F389E02D80818F7D4B
:1003100080830895EF92FF920F931F93CF93DF9303
:10032000EC0181E0888F9B8D8C8D98131AC0E88931
:10033000F989808185FF15C09FB7F894EE89FF8900
:100340006083E889F98980818370806480839FBF9E
:1003500081E090E0DF91CF911F910F91FF90EF909E
:100360000895F62E0B8D10E00F5F1F4F0F731127AE
:10037000E02E8C8D8E110CC00FB607FCFACFE889E9
:10038000F989808185FFF5CFCE010E946801F1CF08
:10039000EB8DEC0FFD2FF11DE35AFF4FF0829FB75D
:1003A000F8940B8FEA89FB8980818062CFCFCF934D
:1003B000DF93EC01888D8823B9F0AA89BB89E8898D
:1003C000F9898C9185FD03C0808186FD0DC00FB633
:1003D00007FCF7CF8C9185FFF2CF808185FFEDCFB1
:1003E000CE010E946801E9CFDF91CF91089590E09E
:1003F000FC01E650FF4F2491FC01EA51FF4F34917C
:10040000FC01EE52FF4FE491EE23C9F0222339F0B4
:10041000233001F1A8F4213019F1223029F1F0E064
:10042000EE0FFF1FE853FF4FA591B4918FB7F894DB
:10043000EC91611126C030953E233C938FBF089507
:100440002730A9F02830C9F0243049F78091800086
:100450008F7D03C0809180008F7780938000DFCFF5
:1004600084B58F7784BDDBCF84B58F7DFBCF809142
:10047000B0008F778093B000D2CF8091B0008F7D95
:10048000F9CF3E2BDACFCF93DF9390E0FC01EA5116
:10049000FF4F24918E529F4FFC0184918823D1F00D
:1004A00090E0880F991FFC01E254FF4FA591B49191
:1004B000FC01E853FF4FC591D49161110EC09FB765
:1004C000F8948C91E22FE0958E238C932881E2237F
:1004D000E8839FBFDF91CF9108958FB7F894EC9197
:1004E000E22BEC938FBFF6CF1F93CF93DF93182FA0
:1004F000EB0161E00E944302209739F460E0812F14
:10050000DF91CF911F910C94F701CF3FD10511F4EA
:1005100061E0F5CFE12FF0E0E650FF4FE491E330EA
:1005200031F140F4E130B1F0E230E1F0C038D10512
:100530007CF7E4CFE73029F1E83059F1E430B1F746
:1005400080918000806280938000D0938B00C09364
:100550008A0004C084B5806884BDC7BDDF91CF9197
:100560001F91089584B5806284BDC8BDF7CF809186
:100570008000806880938000D0938900C0938800B9
:10058000EDCF8091B00080688093B000C093B3003D
:10059000E5CF8091B00080628093B000C093B4003A
:1005A000DDCF3FB7F8948091300290913102A09155
:1005B0003202B091330226B5A89B05C02F3F19F037
:1005C0000196A11DB11D3FBFBA2FA92F982F8827D3
:1005D000BC01CD01620F711D811D911D42E0660FAE
:1005E000771F881F991F4A95D1F708958F929F9280
:1005F000AF92BF92CF92DF92EF92FF924B015C01DC
:100600000E94D1026B017C010E94D1026C197D090C
:100610008E099F09683E734081059105A8F321E08A
:10062000821A9108A108B10888EEC80E83E0D81E8E
:10063000E11CF11C81149104A104B10429F7FF907D
:10064000EF90DF90CF90BF90AF909F908F900895E4
:100650000895089520910C02260F3327331F21326D
:100660003105ECF420918802FC0190E080E0243018
:1006700069F082E00895A0910C022191AC014451EF
:100680005E4FA40FB52FB11D2C930196861798F3DA
:1006900080910C02680F60930C0280E0089581E065
:1006A00008951092880281E080936702109262029E
:1006B00061E082E10E94F70161E083E10E94F701BD
:1006C000E9EBF0E080818E7F808380818D7F808365
:1006D00088E48093B80085E48093BC000895CF93AC
:1006E000DF9391E09093EB018823B9F0C091B800BB
:1006F000D091BA008091BC008A7B8093BC0060E0FE
:1007000082E10E94F70160E083E10E94F7010E940C
:100710005103D093BA00C093B800DF91CF910895F0
:10072000CF92DF92EF92FF920F931F93CF93DF93BD
:10073000D82FC62F613208F098C00E94D1026B01F9
:100740007C018091880281116BC081E080938802D6
:10075000809367029FEF90936602109265029C0F50
:10076000909364028093630280916302DD0FD82B23
:10077000D093630280916202813009F078C01092B8
:1007800062020E94D1026B017C018091630280931E
:10079000BB0080918A0290918B02A0918C02B09153
:1007A0008D02892B8A2B8B2BA1F00E94D102009104
:1007B0008A0210918B0220918C0230918D026C196B
:1007C0007D098E099F09061717072807390708F4BE
:1007D00048C08091BC0083FDD8CF85EC8093BC00DD
:1007E0000E94D1026B017C0180918802813009F462
:1007F00040C0809165028C1710F4C0916502E2E45C
:10080000F2E0A8E6B2E080E08C1355C08C2FDF91B7
:10081000CF911F910F91FF90EF90DF90CF900895AF
:1008200080918A0290918B02A0918C02B0918D02EE
:10083000892B8A2B8B2B09F484CF0E94D102009143
:100840008A0210918B0220918C0230918D026C19DA
:100850007D098E099F09061717072807390708F031
:1008600070CF809189020E946F03C0E0CFCF85EEE8
:10087000B5CF80918A0290918B02A0918C02B091A9
:100880008D02892B8A2B8B2B09F4AECF0E94D102CB
:1008900000918A0210918B0220918C0230918D027E
:1008A0006C197D098E099F09061717072807390754
:1008B00008F09ACFD6CF91919D938F5FA5CF0895E1
:1008C000E0913D0280913C02E81730F4F0E0E859F5
:1008D000FD4F808190E008958FEF9FEF08959091F4
:1008E0003D0280913C022FEF3FEF981748F4E92F2B
:1008F000F0E0E859FD4F208130E09F5F90933D028A
:10090000C901089580913C0290913D02891B990B89
:100910000895CF92DF92EF92FF920F931F93CF93A0
:10092000DF937C01CB018A0120914102222389F0CF
:10093000EB016B01C40ED51ECC15DD0569F0699184
:10094000D701ED91FC910190F081E02DC70109954F
:10095000F3CF642F0E942A03C801DF91CF911F912A
:100960000F91FF90EF90DF90CF900895CF93DF939A
:100970001F92CDB7DEB76983209141022223F9F09F
:1009800020913E02203258F021E030E0FC01338318
:10099000228390E080E00F90DF91CF9108958091C5
:1009A0003F02E82FF0E0E553FE4F998190838F5F7F
:1009B00080933F0280933E0281E090E0ECCF61E0C3
:1009C000CE0101960E942A03F7CFCF92DF92EF92D9
:1009D000FF920F931F93CF93DF93D0913E0281E05C
:1009E000D13208F09CC0C09140020E94D1026B013C
:1009F0007C018091880281116CC082E08093880222
:100A000081E0809367028FEF809366021092650207
:100A1000D0936402ABECB1E0E2E4F2E080E0D81302
:100A20008DC01092630280916302CC0FC82BC093DB
:100A3000630280916202813009F084C010926202E8
:100A40000E94D1026B017C01809163028093BB0004
:100A500080918A0290918B02A0918C02B0918D02BC
:100A6000892B8A2B8B2BA1F00E94D10200918A0244
:100A700010918B0220918C0230918D026C197D09AE
:100A80008E099F09061717072807390708F442C07F
:100A90008091BC0083FDD8CF85EC8093BC000E9480
:100AA000D1026B017C0180918802823009F44CC034
:100AB000809166028F3F09F469C08091660280329E
:100AC00009F466C080916602803309F463C084E053
:100AD00026C080918A0290918B02A0918C02B091E5
:100AE0008D02892B8A2B8B2B09F483CF0E94D10294
:100AF00000918A0210918B0220918C0230918D021C
:100B00006C197D098E099F090617170728073907F1
:100B100008F06FCF809189020E946F0385E01092E8
:100B20003F0210923E0210924102DF91CF911F913D
:100B30000F91FF90EF90DF90CF9008959D9191934A
:100B40008F5F6DCF85EEA9CF80918A0290918B0245
:100B5000A0918C02B0918D02892B8A2B8B2B09F4EA
:100B6000A2CF0E94D10200918A0210918B022091A3
:100B70008C0230918D026C197D098E099F09061730
:100B800017072807390708F08ECFC4CF80E0C7CFFA
:100B900082E0C5CF83E0C3CF1F93CF93DF93162F9F
:100BA000CCE5D3E0AC81BD819B8121E02093410263
:100BB0009093400210923F0210923E02ED91FC9100
:100BC00011970190F081E02D682FCD0109958C815E
:100BD0009D81DC01ED91FC910190F081E02D612F70
:100BE00009958C819D810E94E50481E0DF91CF9180
:100BF0001F910895ECE5F3E082879387682F8DE3DA
:100C000090E00E94CC056EE170E080E090E00C94F2
:100C1000F60290E080E0089560E08EE00E944302DA
:100C200080E480937C0080917A00806480937A00D5
:100C300080917A0086FDFCCF8091780060917900E8
:100C4000762F682F072E000C880B990B0E947312C9
:100C500020E030EC4FE754E40E94C91120E030E07E
:100C600040EA50E40E94961320E030E040E850E46F
:100C70000E94961308950C940C06FF920F931F93F5
:100C8000CF93DF938C01EB0160E01816190624F076
:100C900011950195110961E0FF24F3941C161D06BE
:100CA00024F0D195C195D109F12C84E00E94F7017F
:100CB0006F2D83E00E94F701B8010F3F110519F075
:100CC00014F06FEF70E086E00E947402BE01CF3F27
:100CD000D10519F014F06FEF70E085E0DF91CF914E
:100CE0001F910F91FF900C947402FC010190002061
:100CF000E9F73197AF01481B590BBC018EE892E030
:100D00000C94EA008F929F92AF92BF920F931F9321
:100D1000CF93DF93CDB7DEB7A1970FB6F894DEBFC0
:100D20000FBECDBF19A2423008F44AE08E010F5D1C
:100D30001F4F842E912CB12CA12CA50194010E944F
:100D4000AF10E62FB901CA01EA30F4F4E05DD80132
:100D5000EE938D01232B242B252B79F790E080E057
:100D6000109719F0CD010E947506A1960FB6F89460
:100D7000DEBF0FBECDBFDF91CF911F910F91BF900E
:100D8000AF909F908F900895E95CE1CF4F925F9272
:100D90006F927F928F929F92AF92BF92CF92DF928B
:100DA000EF92FF920F931F93CF936B017C01742EF0
:100DB000AC019B010E940F14882399F088E391E015
:100DC000CF911F910F91FF90EF90DF90CF90BF9048
:100DD000AF909F908F907F906F905F904F900C940A
:100DE000750646015701E894B7F82FEF3FEF4FE73C
:100DF0005FE7C501B4010E940F1481110DC02FEFF0
:100E00003FEF4FE75FE7C501B4010E94BF1118161D
:100E10001CF48CE391E0D4CF2FEF3FEF4FE75FE47A
:100E2000C701B6010E94891318161CF480E491E0F2
:100E3000C7CF2FEF3FEF4FE75FECC701B6010E942E
:100E4000BF1187FDF3CF20E030E0A901C701B60153
:100E50000E94BF1110E000E087FF0AC06DE28EE83B
:100E600092E00E948A018C01F7FAF094F7F8F0946E
:100E7000C0E060E070E080E09FE37C1641F020E09D
:100E800030E040E251E40E94C911CF5FF6CFA701E4
:100E900096010E94E1102B013C010E9442124B017D
:100EA0005C014AE00E9482067C01E00EF11ECC2328
:100EB000C1F1C501B4010E9471129B01AC01C301D3
:100EC000B2010E94E0104B015C016EE28EE892E0FC
:100ED0000E948A01E80EF91EC15018F120E030E0AE
:100EE00040E251E4C501B4010E9496132B013C017C
:100EF0000E9442124B01B12CA12C4AE0C501B40161
:100F00000E948206E80EF91EC501B4010E9471120A
:100F10009B01AC01C301B2010E94E0104B015C01D6
:100F2000DBCFC701CF911F910F91FF90EF90DF9022
:100F3000CF90BF90AF909F908F907F906F905F9079
:100F40004F900895CF93DF93CCE5D3E08C819D81C2
:100F50002B8131E0309341022093400210923F02F6
:100F600010923E02DC01ED91FC910190F081E02DA8
:100F700060E009958C819D810E94E50461E08B8190
:100F80000E94900310923D0280933C028C819D81CF
:100F9000DC01ED91FC910284F385E02D0995DF9150
:100FA000CF9108950C94E4148F929F92AF92BF92C8
:100FB000CF92DF92EF92FF920F931F93CF93DF9325
:100FC000CDB7DEB762970FB6F894DEBF0FBECDBFC8
:100FD0006C018B01FB01349680E2DF011D928A9542
:100FE000E9F784E290E0A0E0B0E0FB018083918328
:100FF000A283B383F60186819781A085B185FB0129
:1010000084839583A683B78383E090E0A0E0B0E07B
:1010100080879187A287B3872FB7F8948091380291
:1010200090913902A0913A02B0913B022FBF808B80
:10103000918BA28BB38B8CE0FE013196DF011D9268
:101040008A95E9F77E01BDE0EB0EF11C86E0F70121
:1010500011928A95E9F7D60114968D919C91159776
:1010600013962C9131E0309341022093400210926C
:101070003F0210923E02DC01ED91FC910190F08163
:10108000E02D6AE10995F601848195810E94E504CD
:1010900066E0D60113968C910E94900310923D0257
:1010A00080933C025E01B3E1AB0EB11CF60184817A
:1010B0009581DC01ED91FC910284F385E02D099589
:1010C000F70181937F01EA15FB0581F76D857E8528
:1010D000072E000C880B990B0E94731220E030E061
:1010E00040E85DE30E9496134B015C016F857889AF
:1010F000072E000C880B990B0E94731220E030E041
:1011000040E85DE30E9496136B017C0169897A894E
:10111000072E000C880B990B0E94731220E030E020
:1011200040E85DE30E949613D80154968D929D92FB
:10113000AD92BC925797F801C08ED18EE28EF38E9D
:101140005C966D937D938D939C935F9781E06296FF
:101150000FB6F894DEBF0FBECDBFDF91CF911F91C8
:101160000F91FF90EF90DF90CF90BF90AF909F9046
:101170008F9008950F931F93CF93DF938C01EB0112
:1011800088E2FB0111928A95E9F74BE050E064E4B4
:1011900071E0CE010E946D151B8681E090E0A0E019
:1011A000B0E08C879D87AE87BF87F80186819781E5
:1011B000A085B185888B998BAA8BBB8B83E090E04F
:1011C000A0E0B0E08C8B9D8BAE8BBF8B1CA21DA2D0
:1011D0001EA21FA2188E198E1A8E1B8E1C8E1D8E9B
:1011E0001E8E1F8E8AE097EDA3E2BCE388A399A32D
:1011F000AAA3BBA3DF91CF911F910F91089585ED15
:101200008093BC0080918A0290918B02A0918C0205
:10121000B0918D020796A11DB11D23E0B695A7954B
:10122000979587952A95D1F72091BC0024FD03C09E
:1012300010928802089540918A0250918B02609129
:101240008C0270918D02452B462B472B69F300973A
:10125000A105B10541F025E32A95F1F700000197BA
:10126000A109B109E1CF809189020C946F030F931A
:101270001F9361E087E00E94F70183E290E001970D
:10128000F1F760E087E00E94F701EEEEF0E0649194
:10129000EAEDF0E0E491F0E0EE0FFF1FEC54FF4FB9
:1012A0008591949108E213E220E030E0462F0E94FD
:1012B000010C611571058105910509F16F5F7F4F83
:1012C0008F4F9F4F9F706115710581059105B9F092
:1012D0000E94711220E030E04AEA53E40E94961323
:1012E00020E030E040E05FE30E94961320E030E42D
:1012F0004CE156E40E94C9111F910F91089560E0DE
:1013000070E088E493E4F8CF1F920F920FB60F922B
:1013100011242F933F934F935F936F937F938F93FA
:101320009F93AF93BF93EF93FF938EE892E00E9459
:101330006801FF91EF91BF91AF919F918F917F9144
:101340006F915F914F913F912F910F900FBE0F9032
:101350001F9018951F920F920FB60F9211242F9382
:101360008F939F93EF93FF93E0919E02F0919F02E2
:101370008081E091A402F091A50282FD1BC09081C2
:101380008091A7028F5F8F732091A802821741F08E
:10139000E091A702F0E0E257FD4F958F8093A702FE
:1013A000FF91EF919F918F912F910F900FBE0F9012
:1013B0001F9018958081F4CF1F920F920FB60F9255
:1013C00011242F933F938F939F93AF93BF9380915B
:1013D000380290913902A0913A02B0913B023091CB
:1013E0002F0223E0230F2D3758F50196A11DB11DC3
:1013F00020932F028093380290933902A0933A02EF
:10140000B0933B028091300290913102A091320260
:10141000B09133020196A11DB11D809330029093CB
:101420003102A0933202B0933302BF91AF919F91EA
:101430008F913F912F910F900FBE0F901F90189595
:1014400026E8230F0296A11DB11DD2CF1F920F9245
:101450000FB60F9211242F933F934F935F936F9387
:101460007F938F939F93AF93BF93EF93FF9380915D
:10147000B900887F803609F44AC0F0F5883209F453
:10148000A7C018F5803109F49BC0B8F4882309F48B
:10149000F9C0883009F494C0FF91EF91BF91AF91EA
:1014A0009F918F917F916F915F914F913F912F917C
:1014B0000F900FBE0F901F901895883109F488C0C7
:1014C000803251F78093660214C0803409F49DC0C5
:1014D00040F48033B9F38833F9F68093660285ECE3
:1014E000B0C0803509F485C0883509F496C08834C9
:1014F00099F60E94FF08D0CF883909F48CC038F5DE
:10150000883729F050F4883611F0803729F683E0C7
:101510008093880210922E0257C0883809F47BC04D
:10152000803919F0803809F0B7CF80912E028032CF
:1015300008F071C0E0912E0281E08E0F80932E02A0
:101540008091BB00F0E0E25FFD4F80833DC0803BB7
:1015500039F0E0F4803A09F479C0883A09F09CCF78
:1015600084E08093880210920D0210920C02E091A8
:101570003602F0913702099580910C0281110FC05B
:1015800081E080930C021092EC0109C0803C09F4C8
:10159000A6CF883C09F4A3CF883B09F07DCFE0912A
:1015A0000D0281E08E0F80930D02F0E0E451FE4FBA
:1015B00080818093BB0090910D0280910C0229C024
:1015C000809163028093BB0085EC8093BC0064CF64
:1015D0009091650280916402981758F5E091650238
:1015E00081E08E0F80936502F0E0EE5BFD4F80811D
:1015F000E9CFE091650281E08E0F809365028091D2
:10160000BB00F0E0EE5BFD4F80839091650280911E
:1016100064029817C8F285E8D8CFE091650281E0AE
:101620008E0F809365028091BB00F0E0EE5BFD4F72
:1016300080838091670281115CCF81E08093620298
:1016400084EA8093BC001092880226CF85EC8093B8
:10165000BC001092880280912E02803230F4E0911A
:101660002E02F0E0E25FFD4F108260912E0270E0EA
:10167000E0913402F09135028EE092E009951092EB
:101680002E020ACF1092660234CF1F920F920FB62D
:101690000F9211242F933F934F935F936F937F93F8
:1016A0008F939F93AF93BF93CF93DF93EF93FF936A
:1016B0008091CA01C0914F03D0E087FF24C01092EF
:1016C0008500109284008091CA018F5F8093CA01C7
:1016D0008091CA01082E000C990B8C179D0724F4E9
:1016E0008091CA018C30C4F1809184009091850072
:1016F000049680349C4908F47AC0809184009091CB
:101700008500049676C08091CA01082E000C990BC2
:101710008C179D07C4F6E091CA018E2FEE0F990B2E
:10172000FC01EE0FFF1FE80FF91FE55DFC4F808104
:1017300086FFC9CFE091CA018E2FEE0F990BFC01F5
:10174000EE0FFF1FE80FF91FE55DFC4F808160E0A1
:101750008F730E94F701B7CF2091840030918500EC
:10176000E091CA018E2FEE0F990BFC01EE0FFF1FC7
:10177000E80FF91FE55DFC4F81819281820F931F75
:101780009093890080938800E091CA018E2FEE0F1C
:10179000990BFC01EE0FFF1FE80FF91FE55DFC4FF1
:1017A000808186FF11C0E091CA018E2FEE0F990B48
:1017B000FC01EE0FFF1FE80FF91FE55DFC4F808174
:1017C00061E08F730E94F701FF91EF91DF91CF915C
:1017D000BF91AF919F918F917F916F915F914F9149
:1017E0003F912F910F900FBE0F901F90189580E49E
:1017F0009CE990938900809388008FEF8093CA01C1
:10180000E3CFCF92DF92EF92FF920F931F93E82FD7
:10181000F92F05C0015011092109310961F19081A9
:1018200096239417B9F305C0015011092109310914
:1018300011F1908196239413F7CFC12CD12CE12C78
:10184000F12C0AC08FEFC81AD80AE80AF80A0C155A
:101850001D052E053F0579F080818623841791F3BD
:101860006C2D7D2D8E2D9F2D1F910F91FF90EF9050
:10187000DF90CF90089560E070E080E090E01F91ED
:101880000F91FF90EF90DF90CF900895109291020A
:101890001092900288EE93E0A0E0B0E08093920274
:1018A00090939302A0939402B09395022AE031E0C2
:1018B00030938F0220938E0225EC30E030939B0210
:1018C00020939A0224EC30E030939D0220939C02F6
:1018D00020EC30E030939F0220939E0221EC30E018
:1018E0003093A1022093A00222EC30E03093A302B7
:1018F0002093A20226EC30E03093A5022093A402AC
:101900001092A7021092A8021092A9021092AA02A5
:1019100010925303109252038093540390935503F3
:10192000A0935603B09357038CE191E09093510339
:101930008093500380914F038C3070F591E0980FA5
:1019400090934F038093680390E0FC01EE0FFF1F1C
:10195000E80FF91FE55DFC4F88EB9BE092838183E4
:101960008EE291E090935D0380935C0387E390E0C7
:10197000A0E0B0E08093620390936303A0936403BC
:10198000B093650388E280935F0380E593E09093D2
:1019900061038093600308958FEF80936803E0CF25
:1019A000CF93DF93CDB7DEB7A8970FB6F894DEBF1D
:1019B0000FBECDBF789484B5826084BD84B581604C
:1019C00084BD85B5826085BD85B5816085BD80910A
:1019D0006E00816080936E00109281008091810082
:1019E000826080938100809181008160809381007A
:1019F000809180008160809380008091B10084603C
:101A00008093B1008091B00081608093B00080919C
:101A10007A00846080937A0080917A00826080935B
:101A20007A0080917A00816080937A0080917A00B8
:101A3000806880937A001092C100E0919E02F0913C
:101A40009F0282E08083E0919A02F0919B021082D3
:101A5000E0919C02F0919D028FEC80831092A6028F
:101A6000E091A202F091A30286E08083E091A002BF
:101A7000F091A102808180618083E091A002F091C9
:101A8000A102808188608083E091A002F091A10290
:101A9000808180688083E091A002F091A102808122
:101AA0008F7D80836AE070E080E090E00E94F60223
:101AB00061E084E00E94430261E086E00E9443020C
:101AC00061E083E00E94430261E085E00E944302FE
:101AD00061E087E00E94430260E088E00E944302E8
:101AE000809168038C3008F051C061E082E00E9470
:101AF000430280916803282F30E0F901EE0FFF1FA9
:101B0000E20FF31FE55DFC4F9081907C9260908323
:101B10001092690310926A032CE0622F0E9436141F
:101B2000829FB001112430E020E0AB01420F531F2F
:101B3000FA01EE0FFF1FE40FF51FE55DFC4F9081EA
:101B400096FD16C02F5F3F4F2C30310571F7811184
:101B50000FC01092800082E0809381001092850077
:101B600010928400B19A80916F00826080936F0020
:101B7000E09168038E2F90E0FC01EE0FFF1FE80F4D
:101B8000F91FE55DFC4F8081806480830E943B06E5
:101B90008BE491E00E9475060E940C0644E00E94CE
:101BA000C6068DE591E00E94750610923D021092E6
:101BB0003C0210923F0210923E020E94510388EEB6
:101BC00090E0909337028093360289EE90E09093F4
:101BD0003502809334020E94A207803A79F068EEC1
:101BE00073E080E090E00E94F6020E94A207803A33
:101BF00029F080E691E00E947506FFCF90E080E03A
:101C00000E94FA0560E28FE390E00E94CC056EE14D
:101C100070E080E090E00E94F6020E94A207803A05
:101C200029F06AE070E080E090E0F5CF62E370E0D8
:101C300080E090E00E94F60260E08EE390E00E9477
:101C4000CC056AE070E080E090E00E94F60260E07F
:101C500087E090E00E94CC0560E08FE390E00E9476
:101C6000CC056AE070E080E090E00E94F6028CE033
:101C700090E00E94FA0564E170E080E090E00E944C
:101C8000F60268EE73E080E090E00E94F6020091B8
:101C900066031091670390E080E00E94FA0569E115
:101CA00070E080E090E00E94F60260E087E090E063
:101CB0000E94CC0560E88FE390E00E94CC056AE0CA
:101CC00070E080E090E00E94F602C8010E94FA05F0
:101CD00064E170E080E090E00E94F602B8E82B2E0C
:101CE000312C08E512E0809169036101C81AD1081E
:101CF00087FDD394CC0CDD1CCC0CDD1C0D2C000C12
:101D0000EE08FF0880916A039801281B310987FDBE
:101D10003395220F331F220F331F032E000C440B69
:101D2000550B2C193D094E095F09A5E0B0E00E9452
:101D3000A41024EB30E040E050E00E948510DA016E
:101D4000C9018C0D9D1DAE1DBF1D0E94B20068EC27
:101D500070E080E090E00E94F6020E9437092B01BB
:101D60003C0120E030E048EC52E40E948913181650
:101D700034F4412C512CECE86E2EE2E47E2EA301CB
:101D8000920160E070E088EC91E40E94E01026E6A9
:101D900036E646EE5FE30E9496134B015C018091AC
:101DA0006A036801C81AD10887FDD394CC0CDD1CE6
:101DB000CC0CDD1CC601DD0CAA0BBB0B8DA39EA3B6
:101DC000AFA3B8A780916903D101A81BB10987FD12
:101DD000B395CD01880F991F880F991F6C01990F3A
:101DE000EE08FF08809168038F3F09F44BC190E033
:101DF000FC01EE0FFF1FE80FF91FE55DFC4F81812D
:101E0000928143E0880F991F4A95E1F7B0E0A0E086
:101E100054E0B595A795979587955A95D1F7029671
:101E20009C012F5F3F4F032E000C440B550B2C19C8
:101E30003D094E095F09A4EBB0E00E94A4102DA15A
:101E40003EA14FA158A52C193D094E095F090E94DA
:101E50008510203531050CF018C1A501940160E012
:101E600070E088E493E40E94E0106B017C0120E0C4
:101E700030E048EC52E4C501B4010E94E1104B018E
:101E80005C018EE891E00E94750644E0C701B6014E
:101E90000E94C60688EA91E00E94750644E0C501EA
:101EA000B4010E94C60686EB91E00E94750644E0EC
:101EB000C301B2010E94C6068FE591E00E9475063B
:101EC0008DE591E00E947506C501B4010E943B12A8
:101ED0004B01C701B6010E943B12CB01B4010E9425
:101EE0003D06BE016F5F7F4F8CE593E00E94D407F3
:101EF0002D893E894F89588D60E070E088E092E43A
:101F00000E94E01025E33AEF4EE85CE30E9496134E
:101F10004B015C010E94C4116B017C01C501B4013D
:101F20000E940314A70196010E94601120EE3EE278
:101F300045E652E40E9496136B017C0120E030E0FC
:101F4000A9010E94891318160CF0B4C020E030E0FB
:101F500040E05FE3C701B6010E94BF1187FFB5C033
:101F600080916A039801281B310987FD3395C901C7
:101F7000880F991F880F991F0E94B2008FB7F8949D
:101F8000409138025091390260913A0270913B02BF
:101F90008FBFBE016F5F7F4F8CE593E00E94D40737
:101FA0008D889E88AF88B88CBE016F5F7F4F8CE5AF
:101FB00093E00E94D4076D897E898F89988DA50151
:101FC00094010E94E0102BED3FE049E450E40E94B0
:101FD000961320E030E044E353E40E94C9116B0102
:101FE0007C010E94C4112B013C01C701B6010E9473
:101FF0000314A30192010E9460119B01AC0160E0F7
:1020000070E0CB010E94E01020E030E044E353E4B4
:102010000E9496132BED3FE049E450E40E94C91161
:1020200020E030E040EE50E40E9496136B017C010A
:10203000AC019B0160E070E088EC92E40E94E0104B
:102040000E943B122B0120E030E048EC52E4C70133
:10205000B6010E94E1100E943B12CB01B2010E9426
:102060003D060E94370920E030E040EF51E40E9435
:10207000BF1118167CF56AE070E080E090E00E94E5
:10208000F60292CF90E080E0CBCE20E030E048E452
:1020900053E4C501B4010E94E1106B017C01A5016C
:1020A000940160E070E088EC92E40E94E0104B0143
:1020B0005C010ACF20E030E040E05FEBC701B601F1
:1020C0000E94891318160CF44BCF6AE070E080E090
:1020D00090E041CE0E943B0670E060E090E080E03E
:1020E0000E943D0660E177E280E090E00E94F60207
:1020F00080E090E0892B09F4F6CD0E9454018823FA
:1021000009F4F1CD0E940000EECD052E97FB1EF4E0
:1021100000940E949C1057FD07D00E94AF1007FC4E
:1021200003D04EF40C949C10509540953095219519
:102130003F4F4F4F5F4F08959095809570956195F3
:102140007F4F8F4F9F4F08950E94D110A59F900DF4
:10215000B49F900DA49F800D911D11240895A1E2BC
:102160001A2EAA1BBB1BFD010DC0AA1FBB1FEE1F11
:10217000FF1FA217B307E407F50720F0A21BB30B5C
:10218000E40BF50B661F771F881F991F1A9469F7D8
:1021900060957095809590959B01AC01BD01CF0134
:1021A0000895A29FB001B39FC001A39F700D811D30
:1021B0001124911DB29F700D811D1124911D089550
:1021C0005058BB27AA270E94F8100C943B130E947A
:1021D000021338F00E94091320F039F49F3F19F4DC
:1021E00026F40C94D8120EF4E095E7FB0C94D2126E
:1021F000E92F0E94601358F3BA1762077307840728
:10220000950720F079F4A6F50C9482130EF4E0956E
:102210000B2EBA2FA02D0B01B90190010C01CA01A0
:10222000A0011124FF27591B99F0593F50F4503E4B
:1022300068F11A16F040A22F232F342F4427585F3D
:10224000F3CF469537952795A795F0405395C9F755
:102250007EF41F16BA0B620B730B840BBAF091500D
:10226000A1F0FF0FBB1F661F771F881FC2F70EC0AC
:10227000BA0F621F731F841F48F48795779567957F
:10228000B795F7959E3F08F0B0CF9395880F08F06B
:102290009927EE0F9795879508950E94021360F095
:1022A00080E891E009F49EEF0E94091328F040E8CD
:1022B00051E071F45EEF0CC00C94D8120C948213B0
:1022C000E92FE0780E94601340F3092E052AB1F34C
:1022D000261737074807590738F00E2E07F8E0256C
:1022E00069F0E025E0640AC0EF6307F8009407FA9C
:1022F000DB01B9019D01DC01CA01AD01EF930E9430
:10230000E0110E943B130E9490115F91552339F018
:102310002BED3FE049E450FD49EC0C94E1100895A9
:10232000DF93DD27B92FBF7740E85FE31616170666
:1023300048075B0718F4D92F0E948E139F938F9341
:102340007F936F930E940B14E8E6F0E00E94DB128B
:102350000E943B132F913F914F915F910E94A913CF
:10236000DD2351F09058A2EA2AED3FE049EC5FE30B
:10237000D0785D270E94F810DF910C943B130E94E7
:10238000AE1208F481E008950E941213E3950C94B4
:102390004C130E94DD110C943B130E94091358F05A
:1023A0000E94021340F029F45F3F29F00C94D212EE
:1023B00051110C9483130C94D8120E94601368F38B
:1023C0009923B1F3552391F3951B550BBB27AA27EE
:1023D00062177307840738F09F5F5F4F220F331F28
:1023E000441FAA1FA9F335D00E2E3AF0E0E832D0F0
:1023F00091505040E695001CCAF72BD0FE2F29D0F3
:10240000660F771F881FBB1F261737074807AB07C4
:10241000B0E809F0BB0B802DBF01FF2793585F4F39
:102420003AF09E3F510578F00C94D2120C9483132D
:102430005F3FE4F3983ED4F3869577956795B7951B
:10244000F7959F5FC9F7880F911D9695879597F926
:102450000895E1E0660F771F881FBB1F621773079F
:102460008407BA0720F0621B730B840BBA0BEE1FB4
:1024700088F7E09508950E9442126894B1110C9477
:10248000831308950E94681388F09F5798F0B92F1E
:102490009927B751B0F0E1F0660F771F881F991F99
:1024A0001AF0BA95C9F714C0B13091F00E948213A6
:1024B000B1E008950C948213672F782F8827B85FB6
:1024C00039F0B93FCCF3869577956795B395D9F7F1
:1024D0003EF490958095709561957F4F8F4F9F4FFB
:1024E0000895E89409C097FB3EF490958095709507
:1024F00061957F4F8F4F9F4F9923A9F0F92F96E950
:10250000BB279395F695879577956795B795F111C4
:10251000F8CFFAF4BB0F11F460FF1BC06F5F7F4F61
:102520008F4F9F4F16C0882311F096E911C0772373
:1025300021F09EE8872F762F05C0662371F096E87C
:10254000862F70E060E02AF09A95660F771F881F4B
:10255000DAF7880F9695879597F90895990F0008EF
:10256000550FAA0BE0E8FEEF16161706E807F90765
:10257000C0F012161306E407F50798F0621B730B00
:10258000840B950B39F40A2661F0232B242B252B81
:1025900021F408950A2609F4A140A6958FEF811D24
:1025A000811D089597F99F6780E870E060E00895C5
:1025B0009FEF80EC0895DF93CF931F930F93FF92CB
:1025C000EF92DF927B018C01689406C0DA2EEF0156
:1025D0000E94A913FE01E894A5912591359145919A
:1025E0005591A6F3EF010E94F810FE019701A80192
:1025F000DA9469F7DF90EF90FF900F911F91CF91E0
:10260000DF91089500240A94161617061806090685
:10261000089500240A941216130614060506089558
:102620000C94D8120E946813D8F3E894E0E0BB271A
:102630009F57F0F02AED3FE049EC06C0EE0FBB0FCC
:10264000661F771F881F28F0B23A62077307840756
:1026500028F0B25A620B730B840BE3959A9572F7CC
:10266000803830F49A95BB0F661F771F881FD2F70A
:1026700090480C941614092E0394000C11F488232E
:1026800052F0BB0F40F4BF2B11F460FF04C06F5F2A
:102690007F4F8F4F9F4F0895EF93E0FF07C0A2EA4F
:1026A0002AED3FE049EC5FEB0E94F8100E943B13DB
:1026B0000F90039401FC9058E5E9F0E00C9422148B
:1026C00057FD9058440F551F59F05F3F71F04795E3
:1026D000880F97FB991F61F09F3F79F087950895C8
:1026E000121613061406551FF2CF4695F1DF08C0E7
:1026F000161617061806991FF1CF86957105610504
:1027000008940895E894BB2766277727CB0197F9AB
:1027100008950E94AE1208F48FEF08959B01AC015A
:1027200060E070E080E89FE30C94C9110E94A91357
:102730000C943B130E94021338F00E94091320F0FE
:10274000952311F00C94D2120C94D81211240C94ED
:1027500083130E94601370F3959FC1F3950F50E0AF
:10276000551F629FF001729FBB27F00DB11D639F43
:10277000AA27F00DB11DAA1F649F6627B00DA11DE9
:10278000661F829F2227B00DA11D621F739FB00D8F
:10279000A11D621F839FA00D611D221F749F3327FF
:1027A000A00D611D231F849F600D211D822F762F98
:1027B0006A2F11249F5750409AF0F1F088234AF075
:1027C000EE0FFF1FBB1F661F771F881F91505040E1
:1027D000A9F79E3F510580F00C94D2120C948313FC
:1027E0005F3FE4F3983ED4F3869577956795B79568
:1027F000F795E7959F5FC1F7FE2B880F911D969582
:10280000879597F908959F930E9412130F9007FCE4
:10281000EE5F0C944C139B01AC010C9496130E9438
:10282000AE12880B990B08959F3F31F0915020F420
:10283000879577956795B795880F911D969587959C
:1028400097F908959F938F937F936F93FF93EF93DF
:102850009B01AC010E949613EF91FF910E94DB1245
:102860002F913F914F915F910C949613991B79E0B2
:1028700004C0991F961708F0961B881F7A95C9F710
:1028800080950895EE0FFF1F0590F491E02D0994B7
:102890000F931F93CF93DF938230910510F482E062
:1028A00090E0E0916D03F0916E0330E020E0B0E045
:1028B000A0E0309799F42115310509F44AC0281B8E
:1028C000390B24303105D8F58A819B81611571055A
:1028D00089F1FB0193838283FE0111C04081518104
:1028E0000281138148175907E0F04817590799F4F6
:1028F000109761F012960C93129713961C933296D0
:10290000CF01DF91CF911F910F91089500936D0337
:1029100010936E03F4CF2115310551F04217530780
:1029200038F0A901DB019A01BD01DF01F801C1CF37
:10293000EF01F9CF90936E0380936D03CDCFFE012D
:10294000E20FF31F81939193225031093983288339
:10295000D7CF20916B0330916C03232B41F420914E
:1029600002013091030130936C0320936B0320919B
:102970000001309101012115310541F42DB73EB719
:102980004091040150910501241B350BE0916B032C
:10299000F0916C03E217F307A0F42E1B3F0B2817EE
:1029A000390778F0AC014E5F5F4F2417350748F0C8
:1029B0004E0F5F1F50936C0340936B038193919371
:1029C0009FCFF0E0E0E09CCFCF93DF930097E9F05A
:1029D000FC01329713821282A0916D03B0916E03B5
:1029E000ED0130E020E01097A1F420813181820FC9
:1029F000931F20916B0330916C032817390709F05E
:102A000061C0F0936C03E0936B03DF91CF91089565
:102A1000EA01CE17DF07E8F54A815B819E01411587
:102A20005105B1F7E901FB83EA8349915991C40F3C
:102A3000D51FEC17FD0761F4808191810296840F08
:102A4000951FE90199838883828193819B838A837F
:102A5000F0E0E0E012968D919C9113970097B9F504
:102A60002D913C911197CD010296820F931F2091D9
:102A70006B0330916C032817390739F6309751F5FD
:102A800010926E0310926D03B0936C03A0936B03CE
:102A9000BCCFD383C28340815181840F951FC81757
:102AA000D90761F44E5F5F4F88819981480F591FA4
:102AB000518340838A819B819383828321153105D1
:102AC00009F0B0CFF0936E03E0936D039ECFFD014C
:102AD000DC01C0CF13821282D7CFFB01DC01415051
:102AE000504048F001900D920020C9F701C01D929E
:0C2AF00041505040E0F70895F894FFCFEB
:102AFC0000006F038000000000008A01EA0017014B
:102B0C00D701480126013A0100000000B6048904EF
:102B1C0009065F0482046F046004000000002803AF
:102B2C00D2072903D407BA086E616E00696E66007D
:102B3C006F766600424E4F303535004261747465D5
:102B4C00727920766F6C746167653A20000D0A000B
:102B5C004E6F20424E4F303535206465746563747A
:102B6C0065642C20436865636B20776972696E67B6
:102B7C00206F722049324320414444522100726933
:102B8C006768742D666163696E672C206C6566746A
:102B9C0053706565643A20000972696768745370F4
:102BAC006565643A20000963757272656E744469D8
:0A2BBC007374616E63653A20000037
:00000001FF
