:100000000C9488000C94B0000C94B0000C94B000D8
:100010000C94B0000C94B0000C94B0000C94B000A0
:100020000C94B0000C94B0000C94B0000C94990D9A
:100030000C94B0000C94B0000C94B0000C94B00080
:100040000C94300C0C94B0000C94FE0B0C94D80B58
:100050000C94B0000C94B0000C94B0000C94B00060
:100060000C947A0C0C94B000084AD73B3BCE016E3E
:1000700084BCBFFDC12F3D6C74319ABD56833DDAFF
:100080003D00C77F11BED9E4BB4C3E916BAAAABE0E
:10009000000000803F05A84CCDB2D44EB93836A937
:1000A000020C50B9918688083CA6AAAA2ABE000074
:1000B00000803F000000000023002600290000000F
:1000C0000000240027002A0000000000250028006E
:1000D0002B000404040404040404020202020202C9
:1000E00003030303030301020408102040800102FC
:1000F000040810200102040810200000000800027B
:1001000001000003040700000000000000009A0E38
:1001100011241FBECFEFD8E0DEBFCDBF11E0A0E0BD
:10012000B1E0E2E1FCE202C005900D92AA3CB10709
:10013000D9F723E0AAECB1E001C01D92AF36B207B7
:10014000E1F710E0C8E8D0E004C02197FE010E946A
:10015000CD14C738D107C9F70E94240F0C94071695
:100160000C9400008F929F92AF92BF92FF920F93D8
:100170001F93CF93DF93F09068032BE02F1508F4C3
:100180004CC020916A0308E512E0021B110927FD0B
:100190001395000F111F000F111F20916903C8E86C
:1001A000D0E0C21BD10927FDD395CC0FDD1FCC0FAA
:1001B000DD1F4E010D2E000CAA08BB089801012E70
:1001C000000C440B550B281939094A095B09DC015D
:1001D0000E94321124EB30E040E050E00E94081110
:1001E000820E931EA41EB51E8C169D062CF0E801EF
:1001F000801691060CF4E4012297CC0FDD1F2FB777
:10020000F8948F2D90E0FC01EE0FFF1FE80FF91F0F
:10021000E55DFC4FD283C1832FBFDF91CF911F914A
:100220000F91FF90BF90AF909F908F900895089589
:100230000895AF92BF92CF92DF92EF92FF920F9309
:100240001F93CF93DF936C017B018B01040F151F6C
:10025000EB015E01AE18BF08C017D10759F06991D4
:10026000D601ED91FC910190F081E02DC601099538
:10027000892B79F7C501DF91CF911F910F91FF90E5
:10028000EF90DF90CF90BF90AF900895FC01538D19
:10029000448D252F30E0842F90E0821B930B541760
:1002A00010F0CF96089501970895FC01918D828DED
:1002B000981761F0A28DAE0FBF2FB11D5D968C9186
:1002C000928D9F5F9F73928F90E008958FEF9FEFC5
:1002D0000895FC01918D828D981731F0828DE80F81
:1002E000F11D858D90E008958FEF9FEF0895FC013B
:1002F000918D228D892F90E0805C9F4F821B910908
:100300008F73992708958EE892E00E94770121E08B
:10031000892B09F420E0822F089580E090E0892B5A
:1003200029F00E94830181110C9400000895FC01C2
:10033000A48DA80FB92FB11DA35ABF4F2C91848D46
:1003400090E001968F739927848FA689B7892C93A3
:10035000A089B1898C91837080648C93938D848DF6
:10036000981306C00288F389E02D80818F7D8083F9
:100370000895EF92FF920F931F93CF93DF93EC01B9
:1003800081E0888F9B8D8C8D98131AC0E889F9893C
:10039000808185FF15C09FB7F894EE89FF8960833F
:1003A000E889F98980818370806480839FBF81E0C0
:1003B00090E0DF91CF911F910F91FF90EF90089502
:1003C000F62E0B8D10E00F5F1F4F0F731127E02EDD
:1003D0008C8D8E110CC00FB607FCFACFE889F98915
:1003E000808185FFF5CFCE010E949701F1CFEB8D83
:1003F000EC0FFD2FF11DE35AFF4FF0829FB7F894E9
:100400000B8FEA89FB8980818062CFCFCF93DF9306
:10041000EC01888D8823B9F0AA89BB89E889F9891C
:100420008C9185FD03C0808186FD0DC00FB607FC51
:10043000F7CF8C9185FFF2CF808185FFEDCFCE0184
:100440000E949701E9CFDF91CF91089590E0FC01E0
:10045000E650FF4F2491FC01EA51FF4F3491FC011B
:10046000EE52FF4FE491EE23C9F0222339F02330FE
:1004700001F1A8F4213019F1223029F1F0E0EE0F5A
:10048000FF1FE853FF4FA591B4918FB7F894EC91FB
:10049000611126C030953E233C938FBF08952730CD
:1004A000A9F02830C9F0243049F7809180008F7D71
:1004B00003C0809180008F7780938000DFCF84B568
:1004C0008F7784BDDBCF84B58F7DFBCF8091B0006B
:1004D0008F778093B000D2CF8091B0008F7DF9CF1D
:1004E0003E2BDACFCF93DF9390E0FC01EA51FF4F30
:1004F00024918E529F4FFC0184918823D1F090E08B
:10050000880F991FFC01E254FF4FA591B491FC01A3
:10051000E853FF4FC591D49161110EC09FB7F89475
:100520008C91E22FE0958E238C932881E223E8833F
:100530009FBFDF91CF9108958FB7F894EC91E22B94
:10054000EC938FBFF6CF1F93CF93DF93182FEB0160
:1005500061E00E947202209739F460E0812FDF9100
:10056000CF911F910C942602CF3FD10511F461E089
:10057000F5CFE12FF0E0E650FF4FE491E33031F1A9
:1005800040F4E130B1F0E230E1F0C038D1057CF761
:10059000E4CFE73029F1E83059F1E430B1F7809148
:1005A0008000806280938000D0938B00C0938A008B
:1005B00004C084B5806884BDC7BDDF91CF911F9111
:1005C000089584B5806284BDC8BDF7CF8091800056
:1005D000806880938000D0938900C0938800EDCF1D
:1005E0008091B00080688093B000C093B300E5CFE5
:1005F0008091B00080628093B000C093B400DDCFE2
:100600003FB7F8948091300290913102A09132026C
:10061000B091330226B5A89B05C02F3F19F0019673
:10062000A11DB11D3FBFBA2FA92F982F8827BC014C
:10063000CD01620F711D811D911D42E0660F771F74
:10064000881F991F4A95D1F708958F929F92AF9274
:10065000BF92CF92DF92EF92FF924B015C010E941A
:1006600000036B017C010E9400036C197D098E0957
:100670009F09683E734081059105A8F321E0821A25
:100680009108A108B10888EEC80E83E0D81EE11CCD
:10069000F11C81149104A104B10429F7FF90EF909B
:1006A000DF90CF90BF90AF909F908F900895089566
:1006B000089520910C02260F3327331F2132310574
:1006C000ECF420918802FC0190E080E0243069F095
:1006D00082E00895A0910C022191AC0144515E4F3B
:1006E000A40FB52FB11D2C930196861798F3809116
:1006F0000C02680F60930C0280E0089581E0089579
:100700001092880281E0809367021092620261E099
:1007100082E10E94260261E083E10E942602E9EB69
:10072000F0E080818E7F808380818D7F808388E46C
:100730008093B80085E48093BC000895CF93DF9345
:1007400091E09093EB018823B9F0C091B800D0916B
:10075000BA008091BC008A7B8093BC0060E082E19B
:100760000E94260260E083E10E9426020E9480032C
:10077000D093BA00C093B800DF91CF910895CF9283
:10078000DF92EF92FF920F931F93CF93DF93D82FB7
:10079000C62F613208F098C00E9400036B017C01F3
:1007A0008091880281116BC081E0809388028093E0
:1007B00067029FEF90936602109265029C0F9093E0
:1007C00064028093630280916302DD0FD82BD09383
:1007D000630280916202813009F078C01092620257
:1007E0000E9400036B017C01809163028093BB0037
:1007F00080918A0290918B02A0918C02B0918D021F
:10080000892B8A2B8B2BA1F00E94000300918A0276
:1008100010918B0220918C0230918D026C197D0910
:100820008E099F09061717072807390708F448C0DB
:100830008091BC0083FDD8CF85EC8093BC000E94E2
:1008400000036B017C0180918802813009F440C073
:10085000809165028C1710F4C0916502E2E4F2E029
:10086000A8E6B2E080E08C1355C08C2FDF91CF91C9
:100870001F910F91FF90EF90DF90CF90089580919E
:100880008A0290918B02A0918C02B0918D02892BEB
:100890008A2B8B2B09F484CF0E94000300918A02DB
:1008A00010918B0220918C0230918D026C197D0980
:1008B0008E099F09061717072807390708F070CF18
:1008C000809189020E949E03C0E0CFCF85EEB5CF14
:1008D00080918A0290918B02A0918C02B0918D023E
:1008E000892B8A2B8B2B09F4AECF0E940003009139
:1008F0008A0210918B0220918C0230918D026C192A
:100900007D098E099F09061717072807390708F080
:100910009ACFD6CF91919D938F5FA5CF0895E09107
:10092000390280913802E81730F4F0E0E859FD4FC1
:10093000808190E008958FEF9FEF089590913902A4
:10094000809138022FEF3FEF981748F4E92FF0E03D
:10095000E859FD4F208130E09F5F90933902C90133
:1009600008958091380290913902891B990B08955E
:10097000CF92DF92EF92FF920F931F93CF93DF936B
:100980007C01CB018A0120913D02222389F0EB01F9
:100990006B01C40ED51ECC15DD0569F06991D70138
:1009A000ED91FC910190F081E02DC7010995F3CF05
:1009B000642F0E945903C801DF91CF911F910F91BD
:1009C000FF90EF90DF90CF900895CF93DF931F9229
:1009D000CDB7DEB7698320913D022223F9F0209143
:1009E0003A02203258F021E030E0FC0133832283C8
:1009F00090E080E00F90DF91CF91089580913B02CD
:100A0000E82FF0E0E553FE4F998190838F5F80934C
:100A10003B0280933A0281E090E0ECCF61E0CE01AE
:100A200001960E945903F7CFCF92DF92EF92FF9287
:100A30000F931F93CF93DF93D0913A0281E0D1328D
:100A400008F09CC0C0913C020E9400036B017C0135
:100A50008091880281116CC082E08093880281E0DD
:100A6000809367028FEF8093660210926502D093A5
:100A70006402ABECB1E0E2E4F2E080E0D8138DC0B8
:100A80001092630280916302CC0FC82BC093630263
:100A900080916202813009F084C0109262020E944B
:100AA00000036B017C01809163028093BB00809105
:100AB0008A0290918B02A0918C02B0918D02892BB9
:100AC0008A2B8B2BA1F00E94000300918A021091C7
:100AD0008B0220918C0230918D026C197D098E0958
:100AE0009F09061717072807390708F442C08091A5
:100AF000BC0083FDD8CF85EC8093BC000E9400032E
:100B00006B017C0180918802823009F44CC0809195
:100B100066028F3F09F469C080916602803209F451
:100B200066C080916602803309F463C084E026C009
:100B300080918A0290918B02A0918C02B0918D02DB
:100B4000892B8A2B8B2B09F483CF0E940003009101
:100B50008A0210918B0220918C0230918D026C19C7
:100B60007D098E099F09061717072807390708F01E
:100B70006FCF809189020E949E0385E010923B0214
:100B800010923A0210923D02DF91CF911F910F9186
:100B9000FF90EF90DF90CF9008959D9191938F5F9C
:100BA0006DCF85EEA9CF80918A0290918B02A091A2
:100BB0008C02B0918D02892B8A2B8B2B09F4A2CF4A
:100BC0000E94000300918A0210918B0220918C02F6
:100BD00030918D026C197D098E099F090617170740
:100BE0002807390708F08ECFC4CF80E0C7CF82E056
:100BF000C5CF83E0C3CF1F93CF93DF93162FCCE5F0
:100C0000D3E0AC81BD819B8121E020933D02909394
:100C10003C0210923B0210923A02ED91FC91119726
:100C20000190F081E02D682FCD0109958C819D8187
:100C3000DC01ED91FC910190F081E02D612F09958F
:100C40008C819D810E94140581E0DF91CF911F91DD
:100C50000895ECE5F3E082879387682F8DE390E0B9
:100C60000E94FB056EE170E080E090E00C942503AB
:100C700090E080E0089560E08EE00E94720280E4DF
:100C800080937C0080917A00806480937A008091C8
:100C90007A0086FDFCCF8091780060917900762FF4
:100CA000682F072E000C880B990B0E94FE1220E083
:100CB00030EC4FE754E40E94541220E030E040EA68
:100CC00050E40E94211420E030E040E850E40E940B
:100CD00021140895FF920F931F93CF93DF938C01FC
:100CE000EB0160E01816190624F011950195110921
:100CF00061E0FF24F3941C161D0624F0D195C195E4
:100D0000D109F12C84E00E9426026F2D83E00E941D
:100D10002602B8010F3F110519F014F06FEF70E0D3
:100D200086E00E94A302BE01CF3FD10519F014F066
:100D30006FEF70E085E0DF91CF911F910F91FF90F1
:100D40000C94A302FC0101900020E9F73197AF0158
:100D5000481B590BBC018EE892E00C9419018F924C
:100D60009F92AF92BF920F931F93CF93DF93CDB714
:100D7000DEB7A1970FB6F894DEBF0FBECDBF19A2A4
:100D8000423008F44AE08E010F5D1F4F842E912CF3
:100D9000B12CA12CA50194010E943A11E62FB901B2
:100DA000CA01EA30F4F4E05DD801EE938D01232B03
:100DB000242B252B79F790E080E0109719F0CD01D6
:100DC0000E94A206A1960FB6F894DEBF0FBECDBF5B
:100DD000DF91CF911F910F91BF90AF909F908F9017
:100DE0000895E95CE1CF4F925F926F927F928F926C
:100DF0009F92AF92BF92CF92DF92EF92FF920F93AA
:100E00001F93CF936B017C01742EAC019B010E9458
:100E10009A14882399F088E391E0CF911F910F9164
:100E2000FF90EF90DF90CF90BF90AF909F908F900A
:100E30007F906F905F904F900C94A20646015701EF
:100E4000E894B7F82FEF3FEF4FE75FE7C501B40134
:100E50000E949A1481110DC02FEF3FEF4FE75FE71B
:100E6000C501B4010E944A1218161CF48CE391E0EB
:100E7000D4CF2FEF3FEF4FE75FE4C701B6010E94E9
:100E8000141418161CF480E491E0C7CF2FEF3FEF45
:100E90004FE75FECC701B6010E944A1287FDF3CF0E
:100EA00020E030E0A901C701B6010E944A1210E01B
:100EB00000E087FF0AC06DE28EE892E00E94B9016F
:100EC0008C01F7FAF094F7F8F094C0E060E070E07D
:100ED00080E09FE37C1641F020E030E040E251E406
:100EE0000E945412CF5FF6CFA70196010E946C11A9
:100EF0002B013C010E94CD124B015C014AE00E9493
:100F0000AF067C01E00EF11ECC23C1F1C501B40196
:100F10000E94FC129B01AC01C301B2010E946B1143
:100F20004B015C016EE28EE892E00E94B901E80E8E
:100F3000F91EC15018F120E030E040E251E4C50153
:100F4000B4010E9421142B013C010E94CD124B01DF
:100F5000B12CA12C4AE0C501B4010E94AF06E80EF5
:100F6000F91EC501B4010E94FC129B01AC01C30132
:100F7000B2010E946B114B015C01DBCFC701CF9125
:100F80001F910F91FF90EF90DF90CF90BF90AF90A7
:100F90009F908F907F906F905F904F900895CF9328
:100FA000DF93CCE5D3E08C819D812B8131E03093C0
:100FB0003D0220933C0210923B0210923A02DC0167
:100FC000ED91FC910190F081E02D60E009958C811C
:100FD0009D810E94140561E08B810E94BF031092E5
:100FE0003902809338028C819D81DC01ED91FC9166
:100FF0000284F385E02D0995DF91CF9108950C943B
:101000006F158F929F92AF92BF92CF92DF92EF9225
:10101000FF920F931F93CF93DF93CDB7DEB7629705
:101020000FB6F894DEBF0FBECDBF6C018B01FB0184
:10103000349680E2DF011D928A95E9F784E290E020
:10104000A0E0B0E0FB0180839183A283B383F6012B
:1010500086819781A085B185FB0184839583A683D2
:10106000B78383E090E0A0E0B0E080879187A2871B
:10107000B3872FB7F89480913E0290913F02A091E0
:101080004002B09141022FBF808B918BA28BB38B1A
:101090008CE0FE013196DF011D928A95E9F77E0111
:1010A000BDE0EB0EF11C86E0F70111928A95E9F79D
:1010B000D60114968D919C91159713962C9131E041
:1010C00030933D0220933C0210923B0210923A0270
:1010D000DC01ED91FC910190F081E02D6AE1099530
:1010E000F601848195810E94140566E0D60113966D
:1010F0008C910E94BF0310923902809338025E01E6
:10110000B3E1AB0EB11CF60184819581DC01ED9158
:10111000FC910284F385E02D0995F70181937F010D
:10112000EA15FB0581F76D857E85072E000C880B7F
:10113000990B0E94FE1220E030E040E85DE30E943F
:1011400021144B015C016F857889072E000C880BF8
:10115000990B0E94FE1220E030E040E85DE30E941F
:1011600021146B017C0169897A89072E000C880B98
:10117000990B0E94FE1220E030E040E85DE30E94FF
:101180002114D80154968D929D92AD92BC9257979E
:10119000F801C08ED18EE28EF38E5C966D937D93B6
:1011A0008D939C935F9781E062960FB6F894DEBFB3
:1011B0000FBECDBFDF91CF911F910F91FF90EF90A8
:1011C000DF90CF90BF90AF909F908F9008954F92F7
:1011D0005F926F927F928F929F92AF92BF92CF92C7
:1011E000DF92EF92FF920F931F93CF93DF93CDB7D0
:1011F000DEB7A4970FB6F894DEBF0FBECDBF8C014B
:101200008FB7F89440913E0250913F0260914002A6
:10121000709141028FBFBE016F5F7F4F8CE593E0FD
:101220000E9401088D889E88AF88B88CBE016F5FD0
:101230007F4F8CE593E00E9401086D897E898F893C
:10124000988DA50194010E946B112BED3FE049E4BC
:1012500050E40E94211420E030E044E353E40E9473
:1012600054122B013C010E944F126B017C01C301FF
:10127000B2010E948E14A70196010E94EB119B01FE
:10128000AC0160E070E0CB010E946B1120E030E027
:1012900044E353E40E9421142BED3FE049E450E481
:1012A0000E94541220E030E040EE50E40E942114ED
:1012B0006B017C01AC019B0160E070E088EC92E482
:1012C0000E946B110E94C6122B0120E030E048EC16
:1012D00052E4C701B6010E946C110E94C612CB01F4
:1012E000B2010E946A06F8010995811107C06AE0FF
:1012F00070E080E090E00E94250398CFA4960FB69E
:10130000F894DEBF0FBECDBFDF91CF911F910F913B
:10131000FF90EF90DF90CF90BF90AF909F908F9015
:101320007F906F905F904F9008950F931F93CF938E
:10133000DF938C01EB0188E2FB0111928A95E9F7BA
:101340004BE050E064E471E0CE010E94F8151B868A
:1013500081E090E0A0E0B0E08C879D87AE87BF87FA
:10136000F80186819781A085B185888B998BAA8B9E
:10137000BB8B83E090E0A0E0B0E08C8B9D8BAE8BCC
:10138000BF8B1CA21DA21EA21FA2188E198E1A8E20
:101390001B8E1C8E1D8E1E8E1F8E8AE097EDA3E283
:1013A000BCE388A399A3AAA3BBA3DF91CF911F910C
:1013B0000F91089585ED8093BC0080918A029091F1
:1013C0008B02A0918C02B0918D020796A11DB11DD8
:1013D00023E0B695A795979587952A95D1F7209103
:1013E000BC0024FD03C010928802089540918A0237
:1013F00050918B0260918C0270918D02452B462B8F
:10140000472B69F30097A105B10541F025E32A9523
:10141000F1F700000197A109B109E1CF809189029C
:101420000C949E030F931F9361E087E00E942602B5
:1014300083E290E00197F1F760E087E00E942602E6
:10144000EEEEF0E06491EAEDF0E0E491F0E0EE0F12
:10145000FF1FEC54FF4F8591949108E213E220E0C6
:1014600030E0462F0E94550E6115710581059105EA
:1014700009F16F5F7F4F8F4F9F4F9F70611571050F
:1014800081059105B9F00E94FC1220E030E04AEAA3
:1014900053E40E94211420E030E040E05FE30E942A
:1014A000211420E030E44CE156E40E9454121F91D4
:1014B0000F91089560E070E088E493E4F8CF2F92F4
:1014C0003F924F925F926F927F928F929F92AF92D4
:1014D000BF92CF92DF92EF92FF920F931F93CF9321
:1014E000DF93CDB7DEB7AC970FB6F894DEBF0FBE73
:1014F000CDBF69A77AA78BA79CA778E5272E72E0B6
:10150000372E08E810E00E94120A2B013C01AC01C2
:101510009B0160E070E088EC91E40E946B1126E68C
:1015200036E646EE5FE30E9421146B017C01809158
:101530006A039101281B310987FD3395220F331F60
:10154000220F331FC901330FAA0BBB0B8DA39EA320
:10155000AFA3B8A7809169034801881A910887FD55
:101560009394880C991C880C991C092C000CAA08CF
:10157000BB08809168038F3F09F4D1C090E0FC0163
:10158000EE0FFF1FE80FF91FE55DFC4F818192818F
:1015900033E0880F991F3A95E1F7B0E0A0E044E00E
:1015A000B595A795979587954A95D1F702969C0191
:1015B0002F5F3F4F032E000C440B550B28193909A0
:1015C0004A095B09A4EBB0E00E9427112DA13EA1BE
:1015D0004FA158A5281939094A095B090E94081129
:1015E000203531050CF09EC0A701960160E070E047
:1015F00088E493E40E946B114B015C0120E030E031
:1016000048EC52E4C701B6010E946C116B017C01E9
:101610008BE491E00E94A20644E0C501B4010E945F
:10162000F30685E691E00E94A20644E0C701B601F8
:101630000E94F30683E791E00E94A20644E0C30102
:10164000B2010E94F30688E891E00E94A20686E8B3
:1016500091E00E94A206C701B6010E94C6126B016A
:10166000C501B4010E94C612CB01B6010E946A06F0
:10167000BE016F5F7F4F8CE593E00E9401082D89CA
:101680003E894F89588D69A57AA58BA59CA50E9496
:101690006B1125E33AEF4EE85CE30E9421144B0105
:1016A0005C010E944F126B017C01C501B4010E94D4
:1016B0008E14A70196010E94EB1120EE3EE245E652
:1016C00052E40E9421146B017C0120E030E0A9016A
:1016D0000E9414141816DCF520E030E040E85FE3C7
:1016E000C701B6010E944A1287FF3BC0AC960FB6F5
:1016F000F894DEBF0FBECDBFDF91CF911F910F9148
:10170000FF90EF90DF90CF90BF90AF909F908F9021
:101710007F906F905F904F903F902F90089590E052
:1017200080E045CF20E030E048E453E4C701B60153
:101730000E946C114B015C01A701960160E070E012
:1017400088EC92E40E946B116B017C0184CF20E055
:1017500030E040E85FEBC701B6010E941414181690
:101760002CF26AE070E080E090E00E942503CBCE8E
:10177000CF930E94120AC1E020E030E040EF51E434
:101780000E944A1218160CF4C0E08C2FCF910895D5
:10179000CF930E94120AC1E020E030E040EF51E414
:1017A0000E944A1218160CF4C0E08C2FCF910895B5
:1017B0001F920F920FB60F9211242F933F934F93C6
:1017C0005F936F937F938F939F93AF93BF93EF93A9
:1017D000FF938EE892E00E949701FF91EF91BF91F5
:1017E000AF919F918F917F916F915F914F913F91B9
:1017F0002F910F900FBE0F901F9018951F920F9270
:101800000FB60F9211242F938F939F93EF93FF9313
:10181000E0919E02F0919F028081E091A402F091FC
:10182000A50282FD1BC090818091A7028F5F8F73FC
:101830002091A802821741F0E091A702F0E0E25760
:10184000FD4F958F8093A702FF91EF919F918F910C
:101850002F910F900FBE0F901F9018958081F4CF9D
:101860001F920F920FB60F9211242F933F938F93D5
:101870009F93AF93BF9380913E0290913F02A091BE
:101880004002B091410230912F0223E0230F2D3707
:1018900058F50196A11DB11D20932F0280933E02A1
:1018A00090933F02A0934002B09341028091300296
:1018B00090913102A0913202B09133020196A11DA4
:1018C000B11D8093300290933102A0933202B09305
:1018D0003302BF91AF919F918F913F912F910F90C4
:1018E0000FBE0F901F90189526E8230F0296A11D9A
:1018F000B11DD2CF1F920F920FB60F9211242F93CA
:101900003F934F935F936F937F938F939F93AF9387
:10191000BF93EF93FF938091B900887F803609F4DD
:101920004AC0F0F5883209F4A7C018F5803109F4EF
:101930009BC0B8F4882309F4F9C0883009F494C036
:10194000FF91EF91BF91AF919F918F917F916F9197
:101950005F914F913F912F910F900FBE0F901F906D
:101960001895883109F488C0803251F78093660257
:1019700014C0803409F49DC040F48033B9F3883337
:10198000F9F68093660285ECB0C0803509F485C015
:10199000883509F496C0883499F60E94DA09D0CFC8
:1019A000883909F48CC038F5883729F050F4883626
:1019B00011F0803729F683E08093880210922E027E
:1019C00057C0883809F47BC0803919F0803809F095
:1019D000B7CF80912E02803208F071C0E0912E02C4
:1019E00081E08E0F80932E028091BB00F0E0E25FD9
:1019F000FD4F80833DC0803B39F0E0F4803A09F42C
:101A000079C0883A09F09CCF84E0809388021092D4
:101A10000D0210920C02E0913602F0913702099506
:101A200080910C0281110FC081E080930C02109212
:101A3000EC0109C0803C09F4A6CF883C09F4A3CF8F
:101A4000883B09F07DCFE0910D0281E08E0F8093FD
:101A50000D02F0E0E451FE4F80818093BB00909135
:101A60000D0280910C0229C0809163028093BB001B
:101A700085EC8093BC0064CF9091650280916402F4
:101A8000981758F5E091650281E08E0F809365020A
:101A9000F0E0EE5BFD4F8081E9CFE091650281E0EF
:101AA0008E0F809365028091BB00F0E0EE5BFD4FEE
:101AB000808390916502809164029817C8F285E84E
:101AC000D8CFE091650281E08E0F8093650280910E
:101AD000BB00F0E0EE5BFD4F8083809167028111D7
:101AE0005CCF81E08093620284EA8093BC00109214
:101AF000880226CF85EC8093BC00109288028091EA
:101B00002E02803230F4E0912E02F0E0E25FFD4FD1
:101B1000108260912E0270E0E0913402F091350263
:101B20008EE092E0099510922E020ACF1092660282
:101B300034CF1F920F920FB60F9211242F933F9321
:101B40004F935F936F937F938F939F93AF93BF93C5
:101B5000CF93DF93EF93FF938091CA01C0914F031E
:101B6000D0E087FF24C010928500109284008091FD
:101B7000CA018F5F8093CA018091CA01082E000CB0
:101B8000990B8C179D0724F48091CA018C30C4F105
:101B90008091840090918500049680349C4908F4DB
:101BA0007AC08091840090918500049676C08091DF
:101BB000CA01082E000C990B8C179D07C4F6E09102
:101BC000CA018E2FEE0F990BFC01EE0FFF1FE80FDD
:101BD000F91FE55DFC4F808186FFC9CFE091CA0106
:101BE0008E2FEE0F990BFC01EE0FFF1FE80FF91F70
:101BF000E55DFC4F808160E08F730E942602B7CFC5
:101C00002091840030918500E091CA018E2FEE0F63
:101C1000990BFC01EE0FFF1FE80FF91FE55DFC4F6C
:101C200081819281820F931F909389008093880015
:101C3000E091CA018E2FEE0F990BFC01EE0FFF1FF2
:101C4000E80FF91FE55DFC4F808186FF11C0E09130
:101C5000CA018E2FEE0F990BFC01EE0FFF1FE80F4C
:101C6000F91FE55DFC4F808161E08F730E942602C1
:101C7000FF91EF91DF91CF91BF91AF919F918F91A4
:101C80007F916F915F914F913F912F910F900FBE78
:101C90000F901F90189580E49CE9909389008093A1
:101CA00088008FEF8093CA01E3CFCF92DF92EF924B
:101CB000FF920F931F93E82FF92F05C001501109D0
:101CC0002109310961F1908196239417B9F305C078
:101CD000015011092109310911F1908196239413C2
:101CE000F7CFC12CD12CE12CF12C0AC08FEFC81AF0
:101CF000D80AE80AF80A0C151D052E053F0579F0EB
:101D000080818623841791F36C2D7D2D8E2D9F2D40
:101D10001F910F91FF90EF90DF90CF90089560E0BA
:101D200070E080E090E01F910F91FF90EF90DF90C6
:101D3000CF900895109291021092900288EE93E055
:101D4000A0E0B0E08093920290939302A09394025B
:101D5000B09395022AE031E030938F0220938E02F7
:101D600025EC30E030939B0220939A0224EC30E083
:101D700030939D0220939C0220EC30E030939F0230
:101D800020939E0221EC30E03093A1022093A00228
:101D900022EC30E03093A3022093A20226EC30E044
:101DA0003093A5022093A4021092A7021092A802D9
:101DB0001092A9021092AA02109253031092520399
:101DC0008093540390935503A0935603B093570305
:101DD0008CE191E0909351038093500380914F03E5
:101DE0008C3070F591E0980F90934F0380936803C7
:101DF00090E0FC01EE0FFF1FE80FF91FE55DFC4FBF
:101E000088EB9BE0928381838EE291E090935D0367
:101E100080935C0387E390E0A0E0B0E080936203EE
:101E200090936303A0936403B093650388E2809367
:101E30005F0380E593E090936103809360030895CE
:101E40008FEF80936803E0CF789484B5826084BD7F
:101E500084B5816084BD85B5826085BD85B58160AE
:101E600085BD80916E00816080936E00109281002C
:101E700080918100826080938100809181008160E7
:101E800080938100809180008160809380008091A8
:101E9000B10084608093B1008091B0008160809334
:101EA000B00080917A00846080937A0080917A00FB
:101EB000826080937A0080917A00816080937A00BA
:101EC00080917A00806880937A001092C100E0913E
:101ED0009E02F0919F0282E08083E0919A02F0914D
:101EE0009B021082E0919C02F0919D028FEC808316
:101EF0001092A602E091A202F091A30286E08083F4
:101F0000E091A002F091A102808180618083E09144
:101F1000A002F091A102808188608083E091A002FC
:101F2000F091A102808180688083E091A002F0910D
:101F3000A10280818F7D80836AE070E080E090E084
:101F40000E94250361E084E00E94720261E086E065
:101F50000E94720261E083E00E94720261E085E00B
:101F60000E94720261E087E00E94720260E088E0F5
:101F70000E947202809168038C3008F051C061E0C9
:101F800082E00E94720280916803282F30E0F901FC
:101F9000EE0FFF1FE20FF31FE55DFC4F9081907C79
:101FA000926090831092690310926A032CE0622F72
:101FB0000E94C114829FB001112430E020E0AB01E7
:101FC000420F531FFA01EE0FFF1FE40FF51FE55DEF
:101FD000FC4F908196FD16C02F5F3F4F2C3031058E
:101FE00071F781110FC01092800082E08093810010
:101FF0001092850010928400B19A80916F008260E7
:1020000080936F00E09168038E2F90E0FC01EE0F4B
:10201000FF1FE80FF91FE55DFC4F8081806480831E
:102020000E943B0689E891E00E94A2060E943B06BE
:1020300044E00E94F30686E891E00E94A206109216
:1020400039021092380210923B0210923A020E941A
:10205000800387E191E0909337028093360288E114
:1020600091E090933502809334020E94CF07803A2A
:1020700079F068EE73E080E090E00E9425030E9412
:10208000CF07803A29F08BE991E00E94A206FFCFAA
:1020900090E080E00E94290660E28FE390E00E94D9
:1020A000FB056EE170E080E090E00E9425030E9455
:1020B000CF07803A29F06AE070E080E090E0F5CF49
:1020C00062E370E080E090E00E94250360E08EE330
:1020D00090E00E94FB056AE070E080E090E00E94E2
:1020E000250360E087E090E00E94FB0560E08FE35D
:1020F00090E00E94FB056AE070E080E090E00E94C2
:1021000025038CE090E00E94290664E170E080E005
:1021100090E00E94250368EE73E080E090E00E946A
:102120002503C0916603D091670390E080E00E9490
:10213000290669E170E080E090E00E94250360E0FC
:1021400087E090E00E94FB0560E88FE390E00E944A
:10215000FB056AE070E080E090E00E942503CE017C
:102160000E94290664E170E080E090E00E9425036F
:1021700000E010E085E090E00E94B20068EC70E0C2
:1021800080E090E00E942503C6E0D0E060E070E0CF
:1021900088E092E40E945F0A70E060E090E080E0F6
:1021A0000E946A0684EB90E00E94B20088EB9BE0FC
:1021B0000E94E70860E070E086E593E40E945F0A11
:1021C00070E060E090E080E00E946A0685E090E0C8
:1021D0000E94B20088EC9BE00E94E7082197B1F6CC
:1021E00070E060E090E080E00E946A0660E27EE4D9
:1021F00080E090E00E9425030115110509F4BACF93
:102200000E948301882309F4B5CF0E940000B2CF59
:10221000052E97FB1EF400940E941F1157FD07D056
:102220000E943A1107FC03D04EF40C941F115095F4
:102230004095309521953F4F4F4F5F4F08959095B2
:102240008095709561957F4F8F4F9F4F08950E94A5
:102250005C11A59F900DB49F900DA49F800D911DC2
:1022600011240895B7FF0C9427110E942711821B97
:10227000930B0895A1E21A2EAA1BBB1BFD010DC0F2
:10228000AA1FBB1FEE1FFF1FA217B307E407F50726
:1022900020F0A21BB30BE40BF50B661F771F881F02
:1022A000991F1A9469F760957095809590959B0198
:1022B000AC01BD01CF010895A29FB001B39FC00141
:1022C000A39F700D811D1124911DB29F700D811D62
:1022D0001124911D08955058BB27AA270E948311ED
:1022E0000C94C6130E948D1338F00E94941320F0B2
:1022F00039F49F3F19F426F40C9463130EF4E0951F
:10230000E7FB0C945D13E92F0E94EB1358F3BA1707
:10231000620773078407950720F079F4A6F50C94FB
:102320000D140EF4E0950B2EBA2FA02D0B01B90160
:1023300090010C01CA01A0011124FF27591B99F03B
:10234000593F50F4503E68F11A16F040A22F232F47
:10235000342F4427585FF3CF469537952795A79597
:10236000F0405395C9F77EF41F16BA0B620B730B3E
:10237000840BBAF09150A1F0FF0FBB1F661F771FAF
:10238000881FC2F70EC0BA0F621F731F841F48F464
:10239000879577956795B795F7959E3F08F0B0CFED
:1023A0009395880F08F09927EE0F979587950895D4
:1023B0000E948D1360F080E891E009F49EEF0E9486
:1023C000941328F040E851E071F45EEF0CC00C94D7
:1023D00063130C940D14E92FE0780E94EB1340F383
:1023E000092E052AB1F3261737074807590738F091
:1023F0000E2E07F8E02569F0E025E0640AC0EF63DF
:1024000007F8009407FADB01B9019D01DC01CA015C
:10241000AD01EF930E946B120E94C6130E941B1223
:102420005F91552339F02BED3FE049E450FD49EC35
:102430000C946C110895DF93DD27B92FBF7740E826
:102440005FE31616170648075B0718F4D92F0E949A
:1024500019149F938F937F936F930E949614E8E6CD
:10246000F0E00E9466130E94C6132F913F914F9196
:102470005F910E943414DD2351F09058A2EA2AEDB6
:102480003FE049EC5FE3D0785D270E948311DF9144
:102490000C94C6130E94391308F481E008950E9439
:1024A0009D13E3950C94D7130E9468120C94C613E5
:1024B0000E94941358F00E948D1340F029F45F3F5E
:1024C00029F00C945D1351110C940E140C946313A9
:1024D0000E94EB1368F39923B1F3552391F3951BF5
:1024E000550BBB27AA2762177307840738F09F5F35
:1024F0005F4F220F331F441FAA1FA9F335D00E2EA2
:102500003AF0E0E832D091505040E695001CCAF70E
:102510002BD0FE2F29D0660F771F881FBB1F2617D1
:1025200037074807AB07B0E809F0BB0B802DBF01A8
:10253000FF2793585F4F3AF09E3F510578F00C9477
:102540005D130C940E145F3FE4F3983ED4F386952C
:1025500077956795B795F7959F5FC9F7880F911D98
:102560009695879597F90895E1E0660F771F881F84
:10257000BB1F621773078407BA0720F0621B730B37
:10258000840BBA0BEE1F88F7E09508950E94CD12D8
:102590006894B1110C940E1408950E94F31388F0FE
:1025A0009F5798F0B92F9927B751B0F0E1F0660F17
:1025B000771F881F991F1AF0BA95C9F714C0B13058
:1025C00091F00E940D14B1E008950C940D14672F42
:1025D000782F8827B85F39F0B93FCCF38695779587
:1025E0006795B395D9F73EF4909580957095619570
:1025F0007F4F8F4F9F4F0895E89409C097FB3EF49B
:1026000090958095709561957F4F8F4F9F4F99233F
:10261000A9F0F92F96E9BB279395F69587957795BD
:102620006795B795F111F8CFFAF4BB0F11F460FF7D
:102630001BC06F5F7F4F8F4F9F4F16C0882311F0D5
:1026400096E911C0772321F09EE8872F762F05C0E9
:10265000662371F096E8862F70E060E02AF09A9584
:10266000660F771F881FDAF7880F9695879597F979
:102670000895990F0008550FAA0BE0E8FEEF161613
:102680001706E807F907C0F012161306E407F50766
:1026900098F0621B730B840B950B39F40A2661F0DA
:1026A000232B242B252B21F408950A2609F4A1407D
:1026B000A6958FEF811D811D089597F99F6780E88A
:1026C00070E060E008959FEF80EC0895DF93CF9372
:1026D0001F930F93FF92EF92DF927B018C0168941E
:1026E00006C0DA2EEF010E943414FE01E894A59191
:1026F0002591359145915591A6F3EF010E948311E3
:10270000FE019701A801DA9469F7DF90EF90FF903E
:102710000F911F91CF91DF91089500240A9416160E
:10272000170618060906089500240A9412161306BF
:102730001406050608950C9463130E94F313D8F34E
:10274000E894E0E0BB279F57F0F02AED3FE049EC2A
:1027500006C0EE0FBB0F661F771F881F28F0B23A26
:1027600062077307840728F0B25A620B730B840B5D
:10277000E3959A9572F7803830F49A95BB0F661FEF
:10278000771F881FD2F790480C94A114092E039448
:10279000000C11F4882352F0BB0F40F4BF2B11F44E
:1027A00060FF04C06F5F7F4F8F4F9F4F0895EF937F
:1027B000E0FF07C0A2EA2AED3FE049EC5FEB0E9490
:1027C00083110E94C6130F90039401FC9058E5E911
:1027D000F0E00C94AD1457FD9058440F551F59F07C
:1027E0005F3F71F04795880F97FB991F61F09F3FFE
:1027F00079F087950895121613061406551FF2CF27
:102800004695F1DF08C0161617061806991FF1CF76
:1028100086957105610508940895E894BB2766279D
:102820007727CB0197F908950E94391308F48FEFA9
:1028300008959B01AC0160E070E080E89FE30C9498
:1028400054120E9434140C94C6130E948D1338F055
:102850000E94941320F0952311F00C945D130C94B6
:10286000631311240C940E140E94EB1370F3959FC4
:10287000C1F3950F50E0551F629FF001729FBB2777
:10288000F00DB11D639FAA27F00DB11DAA1F649F13
:102890006627B00DA11D661F829F2227B00DA11DC6
:1028A000621F739FB00DA11D621F839FA00D611D4C
:1028B000221F749F3327A00D611D231F849F600D6D
:1028C000211D822F762F6A2F11249F5750409AF096
:1028D000F1F088234AF0EE0FFF1FBB1F661F771F22
:1028E000881F91505040A9F79E3F510580F00C94ED
:1028F0005D130C940E145F3FE4F3983ED4F3869579
:1029000077956795B795F795E7959F5FC1F7FE2B8C
:10291000880F911D9695879597F908959F930E942A
:102920009D130F9007FCEE5F0C94D7139B01AC0135
:102930000C9421140E943913880B990B08959F3F22
:1029400031F0915020F4879577956795B795880F6A
:10295000911D9695879597F908959F938F937F93EF
:102960006F93FF93EF939B01AC010E942114EF91B1
:10297000FF910E9466132F913F914F915F910C94AC
:102980002114991B79E004C0991F961708F0961B33
:10299000881F7A95C9F780950895EE0FFF1F05905F
:1029A000F491E02D09940F931F93CF93DF9382301E
:1029B000910510F482E090E0E0916D03F0916E03D8
:1029C00030E020E0B0E0A0E0309799F42115310527
:1029D00009F44AC0281B390B24303105D8F58A8107
:1029E0009B816115710589F1FB0193838283FE014F
:1029F00011C0408151810281138148175907E0F0CD
:102A00004817590799F4109761F012960C93129792
:102A100013961C933296CF01DF91CF911F910F91A6
:102A2000089500936D0310936E03F4CF21153105C3
:102A300051F04217530738F0A901DB019A01BD019B
:102A4000DF01F801C1CFEF01F9CF90936E038093BE
:102A50006D03CDCFFE01E20FF31F819391932250BE
:102A6000310939832883D7CF20916B0330916C03D0
:102A7000232B41F4209102013091030130936C0328
:102A800020936B0320910001309101012115310544
:102A900041F42DB73EB74091040150910501241B2C
:102AA000350BE0916B03F0916C03E217F307A0F490
:102AB0002E1B3F0B2817390778F0AC014E5F5F4F94
:102AC0002417350748F04E0F5F1F50936C03409357
:102AD0006B03819391939FCFF0E0E0E09CCFCF9385
:102AE000DF930097E9F0FC01329713821282A091E4
:102AF0006D03B0916E03ED0130E020E01097A1F47A
:102B000020813181820F931F20916B0330916C03E0
:102B10002817390709F061C0F0936C03E0936B0349
:102B2000DF91CF910895EA01CE17DF07E8F54A81DA
:102B30005B819E0141155105B1F7E901FB83EA83F1
:102B400049915991C40FD51FEC17FD0761F480819D
:102B500091810296840F951FE90199838883828170
:102B600093819B838A83F0E0E0E012968D919C91A3
:102B700013970097B9F52D913C911197CD010296CD
:102B8000820F931F20916B0330916C032817390734
:102B900039F6309751F510926E0310926D03B09391
:102BA0006C03A0936B03BCCFD383C283408151815C
:102BB000840F951FC817D90761F44E5F5F4F888156
:102BC0009981480F591F518340838A819B81938348
:102BD00082832115310509F0B0CFF0936E03E093A5
:102BE0006D039ECFFD01DC01C0CF13821282D7CFCF
:102BF000FB01DC014150504048F001900D92002053
:102C0000C9F701C01D9241505040E0F70895F89473
:022C1000FFCFF4
:102C120000006F03800000000000B90119014601A5
:102C2200060277015501690100000000E504B804BD
:102C320038068E04B1049E048F040000000057037E
:102C4200FF075803010895096E616E00696E660000
:102C52006F766600424E4F30353500726967687490
:102C62002D666163696E672C206C656674537065AE
:102C720065643A2000097269676874537065656417
:102C82003A20000963757272656E744469737461E7
:102C92006E63653A20000D0A0042617474657279B0
:102CA20020766F6C746167653A20004E6F20424E49
:102CB2004F3035352064657465637465642C204338
:102CC2006865636B20776972696E67206F7220494D
:0A2CD2003243204144445221000027
:00000001FF
