:020000040000FA
:100000000C9488000C94B0000C94B0000C94B000D8
:100010000C94B0000C94B0000C94B0000C94B000A0
:100020000C94B0000C94B0000C94B0000C94350FFC
:100030000C94B0000C94B0000C94B0000C94B00080
:100040000C94CC0D0C94B0000C949A0D0C94740D7F
:100050000C94B0000C94B0000C94B0000C94B00060
:100060000C94160E0C94B000084AD73B3BCE016EA0
:1000700084BCBFFDC12F3D6C74319ABD56833DDAFF
:100080003D00C77F11BED9E4BB4C3E916BAAAABE0E
:10009000000000803F05A84CCDB2D44EB93836A937
:1000A000020C50B9918688083CA6AAAA2ABE000074
:1000B00000803F000000000023002600290000000F
:1000C0000000240027002A0000000000250028006E
:1000D0002B000404040404040404020202020202C9
:1000E00003030303030301020408102040800102FC
:1000F000040810200102040810200000000800027B
:10010000010000030407000000000000000036109A
:1001100011241FBECFEFD8E0DEBFCDBF11E0A0E0BD
:10012000B1E0ECE8FFE202C005900D92A03EB107FD
:10013000D9F723E0A0EEB1E001C01D92A938B207C3
:10014000E1F710E0C8E8D0E004C02197FE010E946A
:100150008A16C738D107C9F70E94C0100C94C4177B
:100160000C9400008F929F92AF92BF92FF920F93D8
:100170001F93CF93DF93F09082032BE02F1508F4A9
:100180004CC02091840308E512E0021B110927FDF1
:100190001395000F111F000F111F20918303C8E852
:1001A000D0E0C21BD10927FDD395CC0FDD1FCC0FAA
:1001B000DD1F4E010D2E000CAA08BB089801012E70
:1001C000000C440B550B281939094A095B09DC015D
:1001D0000E94EF1224EB30E040E050E00E94C51294
:1001E000820E931EA41EB51E8C169D062CF0E801EF
:1001F000801691060CF4E4012297CC0FDD1F2FB777
:10020000F8948F2D90E0FC01EE0FFF1FE80FF91F0F
:10021000EB5BFC4FD283C1832FBFDF91CF911F9146
:100220000F91FF90BF90AF909F908F900895089589
:100230000895AF92BF92CF92DF92EF92FF920F9309
:100240001F93CF93DF936C017B018B01040F151F6C
:10025000EB015E01AE18BF08C017D10759F06991D4
:10026000D601ED91FC910190F081E02DC601099538
:10027000892B79F7C501DF91CF911F910F91FF90E5
:10028000EF90DF90CF90BF90AF900895FC01538D19
:10029000448D252F30E0842F90E0821B930B541760
:1002A00010F0CF96089501970895FC01918D828DED
:1002B000981761F0A28DAE0FBF2FB11D5D968C9186
:1002C000928D9F5F9F73928F90E008958FEF9FEFC5
:1002D0000895FC01918D828D981731F0828DE80F81
:1002E000F11D858D90E008958FEF9FEF0895FC013B
:1002F000918D228D892F90E0805C9F4F821B910908
:100300008F739927089588EA92E00E94770121E08F
:10031000892B09F420E0822F089580E090E0892B5A
:1003200029F00E94830181110C9400000895FC01C2
:10033000A48DA80FB92FB11DA35ABF4F2C91848D46
:1003400090E001968F739927848FA689B7892C93A3
:10035000A089B1898C91837080648C93938D848DF6
:10036000981306C00288F389E02D80818F7D8083F9
:100370000895EF92FF920F931F93CF93DF93EC01B9
:1003800081E0888F9B8D8C8D98131AC0E889F9893C
:10039000808185FF15C09FB7F894EE89FF8960833F
:1003A000E889F98980818370806480839FBF81E0C0
:1003B00090E0DF91CF911F910F91FF90EF90089502
:1003C000F62E0B8D10E00F5F1F4F0F731127E02EDD
:1003D0008C8D8E110CC00FB607FCFACFE889F98915
:1003E000808185FFF5CFCE010E949701F1CFEB8D83
:1003F000EC0FFD2FF11DE35AFF4FF0829FB7F894E9
:100400000B8FEA89FB8980818062CFCFCF93DF9306
:10041000EC01888D8823B9F0AA89BB89E889F9891C
:100420008C9185FD03C0808186FD0DC00FB607FC51
:10043000F7CF8C9185FFF2CF808185FFEDCFCE0184
:100440000E949701E9CFDF91CF91089590E0FC01E0
:10045000E650FF4F2491FC01EA51FF4F3491FC011B
:10046000EE52FF4FE491EE23C9F0222339F02330FE
:1004700001F1A8F4213019F1223029F1F0E0EE0F5A
:10048000FF1FE853FF4FA591B4918FB7F894EC91FB
:10049000611126C030953E233C938FBF08952730CD
:1004A000A9F02830C9F0243049F7809180008F7D71
:1004B00003C0809180008F7780938000DFCF84B568
:1004C0008F7784BDDBCF84B58F7DFBCF8091B0006B
:1004D0008F778093B000D2CF8091B0008F7DF9CF1D
:1004E0003E2BDACFCF93DF9390E0FC01EA51FF4F30
:1004F00024918E529F4FFC0184918823D1F090E08B
:10050000880F991FFC01E254FF4FA591B491FC01A3
:10051000E853FF4FC591D49161110EC09FB7F89475
:100520008C91E22FE0958E238C932881E223E8833F
:100530009FBFDF91CF9108958FB7F894EC91E22B94
:10054000EC938FBFF6CF1F93CF93DF93182FEB0160
:1005500061E00E947202209739F460E0812FDF9100
:10056000CF911F910C942602CF3FD10511F461E089
:10057000F5CFE12FF0E0E650FF4FE491E33031F1A9
:1005800040F4E130B1F0E230E1F0C038D1057CF761
:10059000E4CFE73029F1E83059F1E430B1F7809148
:1005A0008000806280938000D0938B00C0938A008B
:1005B00004C084B5806884BDC7BDDF91CF911F9111
:1005C000089584B5806284BDC8BDF7CF8091800056
:1005D000806880938000D0938900C0938800EDCF1D
:1005E0008091B00080688093B000C093B300E5CFE5
:1005F0008091B00080628093B000C093B400DDCFE2
:100600003FB7F89480914A0290914B02A0914C021E
:10061000B0914D0226B5A89B05C02F3F19F0019659
:10062000A11DB11D3FBFBA2FA92F982F8827BC014C
:10063000CD01620F711D811D911D42E0660F771F74
:10064000881F991F4A95D1F708958F929F92AF9274
:10065000BF92CF92DF92EF92FF924B015C010E941A
:1006600000036B017C010E9400036C197D098E0957
:100670009F09683E734081059105A8F321E0821A25
:100680009108A108B10888EEC80E83E0D81EE11CCD
:10069000F11C81149104A104B10429F7FF90EF909B
:1006A000DF90CF90BF90AF909F908F900895089566
:1006B000089520912602260F3327331F213231055A
:1006C000ECF42091A202FC0190E080E0243069F07B
:1006D00082E00895A09126022191AC014A5F5D4F0E
:1006E000A40FB52FB11D2C930196861798F3809116
:1006F0002602680F6093260280E0089581E0089545
:100700001092A20281E08093810210927C0261E04B
:1007100082E10E94260261E083E10E942602E9EB69
:10072000F0E080818E7F808380818D7F808388E46C
:100730008093B80085E48093BC000895CF93DF9345
:1007400091E0909305028823B9F0C091B800D09150
:10075000BA008091BC008A7B8093BC0060E082E19B
:100760000E94260260E083E10E9426020E9480032C
:10077000D093BA00C093B800DF91CF910895CF9283
:10078000DF92EF92FF920F931F93CF93DF93D82FB7
:10079000C62F613208F098C00E9400036B017C01F3
:1007A0008091A20281116BC081E08093A2028093AC
:1007B00081029FEF9093800210927F029C0F909392
:1007C0007E0280937D0280917D02DD0FD82BD09335
:1007D0007D0280917C02813009F078C010927C0209
:1007E0000E9400036B017C0180917D028093BB001D
:1007F0008091A4029091A502A091A602B091A702B7
:10080000892B8A2B8B2BA1F00E9400030091A4025C
:100810001091A5022091A6023091A7026C197D09C2
:100820008E099F09061717072807390708F448C0DB
:100830008091BC0083FDD8CF85EC8093BC000E94E2
:1008400000036B017C018091A202813009F440C059
:1008500080917F028C1710F4C0917F02ECE5F2E0EA
:10086000A2E8B2E080E08C1355C08C2FDF91CF91CD
:100870001F910F91FF90EF90DF90CF90089580919E
:10088000A4029091A502A091A602B091A702892B83
:100890008A2B8B2B09F484CF0E9400030091A402C1
:1008A0001091A5022091A6023091A7026C197D0932
:1008B0008E099F09061717072807390708F070CF18
:1008C0008091A3020E949E03C0E0CFCF85EEB5CFFA
:1008D0008091A4029091A502A091A602B091A702D6
:1008E000892B8A2B8B2B09F4AECF0E940003009139
:1008F000A4021091A5022091A6023091A7026C19C2
:100900007D098E099F09061717072807390708F080
:100910009ACFD6CF91919D938F5FA5CF0895E09107
:10092000530280915202E81730F4F0E0EE57FD4F89
:10093000808190E008958FEF9FEF0895909153028A
:10094000809152022FEF3FEF981748F4E92FF0E023
:10095000EE57FD4F208130E09F5F90935302C90115
:1009600008958091520290915302891B990B08952A
:10097000CF92DF92EF92FF920F931F93CF93DF936B
:100980007C01CB018A0120915702222389F0EB01DF
:100990006B01C40ED51ECC15DD0569F06991D70138
:1009A000ED91FC910190F081E02DC7010995F3CF05
:1009B000642F0E945903C801DF91CF911F910F91BD
:1009C000FF90EF90DF90CF900895CF93DF931F9229
:1009D000CDB7DEB76983209157022223F9F0209129
:1009E0005402203258F021E030E0FC0133832283AE
:1009F00090E080E00F90DF91CF91089580915502B3
:100A0000E82FF0E0EB51FE4F998190838F5F809348
:100A100055028093540281E090E0ECCF61E0CE017A
:100A200001960E945903F7CFCF92DF92EF92FF9287
:100A30000F931F93CF93DF93D091540281E0D13273
:100A400008F09CC0C09156020E9400036B017C011B
:100A50008091A20281116CC082E08093A20281E0A9
:100A6000809381028FEF8093800210927F02D09357
:100A70007E02A5EEB1E0ECE5F2E080E0D8138DC097
:100A800010927D0280917D02CC0FC82BC0937D0215
:100A900080917C02813009F084C010927C020E9417
:100AA00000036B017C0180917D028093BB008091EB
:100AB000A4029091A502A091A602B091A702892B51
:100AC0008A2B8B2BA1F00E9400030091A4021091AD
:100AD000A5022091A6023091A7026C197D098E090A
:100AE0009F09061717072807390708F442C08091A5
:100AF000BC0083FDD8CF85EC8093BC000E9400032E
:100B00006B017C018091A202823009F44CC080917B
:100B100080028F3F09F469C080918002803209F41D
:100B200066C080918002803309F463C084E026C0EF
:100B30008091A4029091A502A091A602B091A70273
:100B4000892B8A2B8B2B09F483CF0E940003009101
:100B5000A4021091A5022091A6023091A7026C195F
:100B60007D098E099F09061717072807390708F01E
:100B70006FCF8091A3020E949E0385E010925502E0
:100B80001092540210925702DF91CF911F910F9152
:100B9000FF90EF90DF90CF9008959D9191938F5F9C
:100BA0006DCF85EEA9CF8091A4029091A502A0916E
:100BB000A602B091A702892B8A2B8B2B09F4A2CF16
:100BC0000E9400030091A4021091A5022091A602A8
:100BD0003091A7026C197D098E099F090617170726
:100BE0002807390708F08ECFC4CF80E0C7CF82E056
:100BF000C5CF83E0C3CF1F93CF93DF93162FC6E7F4
:100C0000D3E0AC81BD819B8121E02093570290937A
:100C100056021092550210925402ED91FC911197D8
:100C20000190F081E02D682FCD0109958C819D8187
:100C3000DC01ED91FC910190F081E02D612F09958F
:100C40008C819D810E94140581E0DF91CF911F91DD
:100C50000895E6E7F3E082879387682F8DE390E0BD
:100C60000E94FB056EE170E080E090E00C942503AB
:100C700090E080E0089560E08EE00E94720280E4DF
:100C800080937C0080917A00806480937A008091C8
:100C90007A0086FDFCCF8091780060917900762FF4
:100CA000682F072E000C880B990B0E94BB1420E0C4
:100CB00030EC4FE754E40E94111420E030E040EAA9
:100CC00050E40E94DE1520E030E040E850E40E944D
:100CD000DE150895FF920F931F93CF93DF938C013E
:100CE000EB0160E01816190624F011950195110921
:100CF00061E0FF24F3941C161D0624F0D195C195E4
:100D0000D109F12C84E00E9426026F2D83E00E941D
:100D10002602B8010F3F110519F014F06FEF70E0D3
:100D200086E00E94A302BE01CF3FD10519F014F066
:100D30006FEF70E085E0DF91CF911F910F91FF90F1
:100D40000C94A302FC0101900020E9F73197AF0158
:100D5000481B590BBC0188EA92E00C9419018F9250
:100D60009F92AF92BF920F931F93CF93DF93CDB714
:100D7000DEB7A1970FB6F894DEBF0FBECDBF19A2A4
:100D8000423008F44AE08E010F5D1F4F842E912CF3
:100D9000B12CA12CA50194010E94F712E62FB901F4
:100DA000CA01EA30F4F4E05DD801EE938D01232B03
:100DB000242B252B79F790E080E0109719F0CD01D6
:100DC0000E94A206A1960FB6F894DEBF0FBECDBF5B
:100DD000DF91CF911F910F91BF90AF909F908F9017
:100DE0000895E95CE1CF4F925F926F927F928F926C
:100DF0009F92AF92BF92CF92DF92EF92FF920F93AA
:100E00001F93CF936B017C01742EAC019B010E9458
:100E10005716882399F088E391E0CF911F910F91A5
:100E2000FF90EF90DF90CF90BF90AF909F908F900A
:100E30007F906F905F904F900C94A20646015701EF
:100E4000E894B7F82FEF3FEF4FE75FE7C501B40134
:100E50000E94571681110DC02FEF3FEF4FE75FE75C
:100E6000C501B4010E94071418161CF48CE391E02C
:100E7000D4CF2FEF3FEF4FE75FE4C701B6010E94E9
:100E8000D11518161CF480E491E0C7CF2FEF3FEF87
:100E90004FE75FECC701B6010E94071487FDF3CF4F
:100EA00020E030E0A901C701B6010E94071410E05C
:100EB00000E087FF0AC06DE288EA92E00E94B90173
:100EC0008C01F7FAF094F7F8F094C0E060E070E07D
:100ED00080E09FE37C1641F020E030E040E251E406
:100EE0000E941114CF5FF6CFA70196010E9429132B
:100EF0002B013C010E948A144B015C014AE00E94D4
:100F0000AF067C01E00EF11ECC23C1F1C501B40196
:100F10000E94B9149B01AC01C301B2010E942813C5
:100F20004B015C016EE288EA92E00E94B901E80E92
:100F3000F91EC15018F120E030E040E251E4C50153
:100F4000B4010E94DE152B013C010E948A144B0162
:100F5000B12CA12C4AE0C501B4010E94AF06E80EF5
:100F6000F91EC501B4010E94B9149B01AC01C30173
:100F7000B2010E9428134B015C01DBCFC701CF9166
:100F80001F910F91FF90EF90DF90CF90BF90AF90A7
:100F90009F908F907F906F905F904F900895CF9328
:100FA000DF93C6E7D3E08C819D812B8131E03093C4
:100FB0005702209356021092550210925402DC01FF
:100FC000ED91FC910190F081E02D60E009958C811C
:100FD0009D810E94140561E08B810E94BF031092E5
:100FE0005302809352028C819D81DC01ED91FC9132
:100FF0000284F385E02D0995DF91CF9108950C943B
:101000002C178F929F92AF92BF92CF92DF92EF9266
:10101000FF920F931F93CF93DF93CDB7DEB7629705
:101020000FB6F894DEBF0FBECDBF6C018B01FB0184
:10103000349680E2DF011D928A95E9F784E290E020
:10104000A0E0B0E0FB0180839183A283B383F6012B
:1010500086819781A085B185FB0184839583A683D2
:10106000B78383E090E0A0E0B0E080879187A2871B
:10107000B3872FB7F8948091580290915902A091AC
:101080005A02B0915B022FBF808B918BA28BB38BE6
:101090008CE0FE013196DF011D928A95E9F77E0111
:1010A000BDE0EB0EF11C86E0F70111928A95E9F79D
:1010B000D60114968D919C91159713962C9131E041
:1010C0003093570220935602109255021092540208
:1010D000DC01ED91FC910190F081E02D6AE1099530
:1010E000F601848195810E94140566E0D60113966D
:1010F0008C910E94BF0310925302809352025E01B2
:10110000B3E1AB0EB11CF60184819581DC01ED9158
:10111000FC910284F385E02D0995F70181937F010D
:10112000EA15FB0581F76D857E85072E000C880B7F
:10113000990B0E94BB1420E030E040E85DE30E9480
:10114000DE154B015C016F857889072E000C880B3A
:10115000990B0E94BB1420E030E040E85DE30E9460
:10116000DE156B017C0169897A89072E000C880BDA
:10117000990B0E94BB1420E030E040E85DE30E9440
:10118000DE15D80154968D929D92AD92BC925797E0
:10119000F801C08ED18EE28EF38E5C966D937D93B6
:1011A0008D939C935F9781E062960FB6F894DEBFB3
:1011B0000FBECDBFDF91CF911F910F91FF90EF90A8
:1011C000DF90CF90BF90AF909F908F900895CF9376
:1011D000DF93CDB7DEB7A4970FB6F894DEBF0FBE8E
:1011E000CDBFBE016F5F7F4F86E793E00E9401088D
:1011F0006D897E898F89988DA4960FB6F894DEBF8D
:101200000FBECDBFDF91CF9108954F925F926F9245
:101210007F928F929F92AF92BF92CF92DF92EF9286
:10122000FF92CF93DF9300D000D000D0CDB7DEB7D0
:101230004B015C015E834D838FB7F8942091580277
:101240003091590240915A0250915B0229833A83AE
:101250004B835C838FBF0E94E7080E94E7089B01D5
:10126000AC01C501B4010E94281325E33AEF4EE812
:101270005CE30E94DE156B017C010E940C142B01C3
:101280003C01C701B6010E944B16A30192010E94C6
:10129000A81320E030E044E353E40E94DE152BED78
:1012A0003FE049E450E40E94111420E030E040EEB9
:1012B00050E40E94DE156B017C01AC019B0160E0F3
:1012C00070E088E493E40E9428130E9483142B01A9
:1012D00020E030E048E453E4C701B6010E9429133E
:1012E0000E948314CB01B2010E946A06ED81FE8147
:1012F00009958823C1F02FB7F894809158029091F6
:101300005902A0915A02B0915B022FBF29813A8104
:101310004B815C81821B930BA40BB50B8A3F91051B
:10132000A105B10538F465E070E080E090E00E942E
:10133000250393CF26960FB6F894DEBF0FBECDBF20
:10134000DF91CF91FF90EF90DF90CF90BF90AF9063
:101350009F908F907F906F905F904F9008950F9324
:101360001F93CF93DF938C01EB0188E2FB01119275
:101370008A95E9F74BE050E064E471E0CE010E9409
:10138000B5171B8681E090E0A0E0B0E08C879D87D8
:10139000AE87BF87F80186819781A085B185888B4C
:1013A000998BAA8BBB8B83E090E0A0E0B0E08C8BA4
:1013B0009D8BAE8BBF8B1CA21DA21EA21FA2188EDE
:1013C000198E1A8E1B8E1C8E1D8E1E8E1F8E8AE00D
:1013D00097EDA3E2BCE388A399A3AAA3BBA3DF91E3
:1013E000CF911F910F91089585ED8093BC0080915E
:1013F000A4029091A502A091A602B091A70207961F
:10140000A11DB11D23E0B695A795979587952A95BF
:10141000D1F72091BC0024FD03C01092A2020895D0
:101420004091A4025091A5026091A6027091A7027A
:10143000452B462B472B69F30097A105B10541F0D9
:1014400025E32A95F1F700000197A109B109E1CF41
:101450008091A3020C949E03CF92DF92EF92FF92B1
:101460000F931F9361E087E00E94260283E290E0E1
:101470000197F1F760E087E00E942602EEEEF0E0CF
:101480006491EAEDF0E0E491F0E0EE0FFF1FEC5420
:10149000FF4F859194910CEB14E320E030E0462F50
:1014A0000E94F10F611571058105910509F447C08E
:1014B0006F5F7F4F8F4F9F4F9F7061157105810543
:1014C0009105E9F10E94B91420E030E04AEA53E4C2
:1014D0000E94DE1520E030E040E05FE30E94DE1570
:1014E00020E030E44CE156E40E94111420E030E0AA
:1014F00040E05FE30E94DE156B017C0120E030E0FC
:1015000040E05FE36091E0017091E1018091E201D0
:101510009091E3010E94DE15A70196010E94291314
:101520006093E0017093E1018093E2019093E30105
:101530001F910F91FF90EF90DF90CF90089560E0A2
:1015400070E086E993E4D2CFCF930E942C0AC1E0E9
:1015500020E030E040EF51E40E94071418160CF42C
:10156000C0E08C2FCF910895CF930E942C0AC1E048
:1015700020E030E040EF51E40E94071418160CF40C
:10158000C0E08C2FCF9108952F923F924F925F929F
:101590006F927F928F929F92AF92BF92CF92DF9283
:1015A000EF92FF920F931F93CF93DF93CDB7DEB7E8
:1015B000A6970FB6F894DEBF0FBECDBF3C014B011E
:1015C000298B3A8B4B8B5C8BED8AFE8A0F8B188FA5
:1015D000A986BA86CB86DC860E94E70825E33AEF27
:1015E0004EE85CE30E94DE156B017C010E940C1446
:1015F0001B012C01C701B6010E944B16A2019101EB
:101600000E94A81320EE3EE245E652E40E94DE1559
:101610009B01AC0169857A858B859C850E94281386
:1016200025E33AEF4EE85CE30E94DE156B017C0196
:101630000E940C141B012C01C701B6010E944B161D
:10164000A20191010E94A81320EE3EE245E652E479
:101650000E94DE1569837A838B839C839301770CC8
:10166000440B550B298F3A8F4B8F5C8FC401990C1B
:10167000AA0BBB0B8D8F9E8FAF8FB8A30E942C0A35
:101680006B017C010091E0019091E1019AA310911E
:10169000E201A091E301A9A3202F392F412F5A2F56
:1016A000B601C7010E94281320E030E048EC52E464
:1016B0000E94D11587FF04C00C2DDAA21E2DF9A2BD
:1016C000202F3AA1412F59A16D897E898F89988D4C
:1016D0000E94281329893A894B895C890E94DE156A
:1016E0006B017C018091840328E532E0281B3109DD
:1016F00087FD3395220F331F220F331FC901330F8C
:10170000AA0BBB0B8D879E87AF87B88B8091830315
:10171000A8E8B0E0A81BB10987FDB395CD01880FFB
:10172000991F880F991F9C01990F440B550B2D830E
:101730003E834F83588720918203312C212C2F3FE9
:10174000E1F030E0C901880F991F820F931FFC015F
:10175000EB5BFC4F2180328053E0220C331C5A9506
:10176000E1F7512C412C64E0559447943794279429
:101770006A95D1F732E0230E311C698D7A8D8B8DFD
:101780009C8D0E94BB144B015C016D8D7E8D8F8DF5
:1017900098A10E94BB142B013C0191012F5F3F4F88
:1017A000032E000C440B550B8D819E81AF81B885B3
:1017B000281B390B4A0B5B0BA4EBB0E00E94E41230
:1017C0006BA37CA38DA39EA32D853E854F85588951
:1017D0008D819E81AF81B885281B390B4A0B5B0B2D
:1017E0006BA17CA18DA19EA10E94C512203531055F
:1017F0000CF0E0C0A7019601C501B4010E942813B6
:101800004B015C01A3019201C701B6010E9429139B
:101810006B017C018BE491E00E94A20644E0C501CB
:10182000B4010E94F30685E691E00E94A20644E01E
:10183000C701B6010E94F30683E791E00E94A20669
:1018400044E0602F7AA1812F99A10E94F306C7017D
:10185000B6010E9483146B01C501B4010E94831478
:10186000CB01B6010E946A0625E33AEF4EE85CE33D
:1018700069857A858B859C850E94DE156B017C01CC
:101880000E940C144B015C01C701B6010E944B166B
:10189000A50194010E94A8134B015C010E94E70876
:1018A00025E33AEF4EE85CE30E94DE156B017C0114
:1018B0000E940C142B013C01C701B6010E944B167B
:1018C000A30192010E94A81320EE3EE245E652E4F5
:1018D0000E94DE156B017C0186E891E00E94A20661
:1018E00042E0C701B6010E94F30620EE3EE245E663
:1018F00052E4C501B4010E94DE15A70196010E94C1
:10190000281325E33AEF4EE85CE30E94DE156B01F5
:101910007C010E940C144B015C01C701B6010E94BE
:101920004B16A50194010E94A81320EE3EE245E665
:1019300052E40E94DE156B017C018FE891E00E9469
:10194000A20642E0C701B6010E94F3068FE991E0CA
:101950000E94A2068DE991E00E94A20620E030E0FC
:10196000A901C701B6010E94D1151816A4F520E0FF
:1019700030E040EA50E4C701B6010E94071418168F
:101980000CF099C0C701B601A70196010E9411147D
:101990000E9483147E836D8320E030E0A901698179
:1019A0007A818B819C810E940714811152C070E062
:1019B00060E067C0A5019401C701B6010E94291328
:1019C0004B015C01A7019601C301B2010E942813DB
:1019D0006B017C013CCF20E030E040EA50ECC701D5
:1019E000B6010E94D11587FF66C020E030E0A90152
:1019F000C701B6010E9407148823F1F0C701B601A0
:101A00009058C2CF69817A818B819C8132C020E05D
:101A100030E048E452ECC701B6010E94D11587FFBF
:101A20004AC065E070E080E090E00E942503C98232
:101A3000DA82EB82FC8222CE20E030E0A9016981CB
:101A40007A818B819C810E940714882351F31E8226
:101A50001D8220E030E0A90169817A818B819C811F
:101A60000E94D115181674F269817A818B819C814C
:101A7000905829813A814B815C810E9411140E9407
:101A80008314AD81BE816A177B0759F220E030E0F4
:101A9000A901C701B6010E94D11518160CF0B7CFE5
:101AA00020E030E048E452E4C701B6010E94071488
:101AB00018160CF4B6CFA6960FB6F894DEBF0FBE7C
:101AC000CDBFDF91CF911F910F91FF90EF90DF90ED
:101AD000CF90BF90AF909F908F907F906F905F90CE
:101AE0004F903F902F9008951F920F920FB60F9234
:101AF00011242F933F934F935F936F937F938F9313
:101B00009F93AF93BF93EF93FF9388EA92E00E9475
:101B10009701FF91EF91BF91AF919F918F917F912D
:101B20006F915F914F913F912F910F900FBE0F904A
:101B30001F9018951F920F920FB60F9211242F939A
:101B40008F939F93EF93FF93E091B802F091B902C6
:101B50008081E091BE02F091BF0282FD1BC09081A6
:101B60008091C1028F5F8F732091C202821741F072
:101B7000E091C102F0E0E855FD4F958F8093C102DE
:101B8000FF91EF919F918F912F910F900FBE0F902A
:101B90001F9018958081F4CF1F920F920FB60F926D
:101BA00011242F933F938F939F93AF93BF93809173
:101BB000580290915902A0915A02B0915B02309163
:101BC000490223E0230F2D3758F50196A11DB11DC1
:101BD000209349028093580290935902A0935A028D
:101BE000B0935B0280914A0290914B02A0914C020B
:101BF000B0914D020196A11DB11D80934A029093B0
:101C00004B02A0934C02B0934D02BF91AF919F91B4
:101C10008F913F912F910F900FBE0F901F901895AD
:101C200026E8230F0296A11DB11DD2CF1F920F925D
:101C30000FB60F9211242F933F934F935F936F939F
:101C40007F938F939F93AF93BF93EF93FF93809175
:101C5000B900887F803609F44AC0F0F5883209F46B
:101C6000A7C018F5803109F49BC0B8F4882309F4A3
:101C7000F9C0883009F494C0FF91EF91BF91AF9102
:101C80009F918F917F916F915F914F913F912F9194
:101C90000F900FBE0F901F901895883109F488C0DF
:101CA000803251F78093800214C0803409F49DC0C3
:101CB00040F48033B9F38833F9F68093800285ECE1
:101CC000B0C0803509F485C0883509F496C08834E1
:101CD00099F60E94F409D0CF883909F48CC038F500
:101CE000883729F050F4883611F0803729F683E0E0
:101CF0008093A2021092480257C0883809F47BC032
:101D0000803919F0803809F0B7CF809148028032CD
:101D100008F071C0E091480281E08E0F8093480284
:101D20008091BB00F0E0E85DFD4F80833DC0803BCB
:101D300039F0E0F4803A09F479C0883A09F09CCF90
:101D400084E08093A2021092270210922602E09172
:101D50005002F091510209958091260281110FC025
:101D600081E0809326021092060209C0803C09F4AB
:101D7000A6CF883C09F4A3CF883B09F07DCFE09142
:101D8000270281E08E0F80932702F0E0EA5FFD4F8B
:101D900080818093BB00909127028091260229C008
:101DA00080917D028093BB0085EC8093BC0064CF62
:101DB00090917F0280917E02981758F5E0917F0202
:101DC00081E08E0F80937F02F0E0E45AFD4F808126
:101DD000E9CFE0917F0281E08E0F80937F028091B6
:101DE000BB00F0E0E45AFD4F808390917F02809128
:101DF0007E029817C8F285E8D8CFE0917F0281E093
:101E00008E0F80937F028091BB00F0E0E45AFD4F7B
:101E100080838091810281115CCF81E080937C027C
:101E200084EA8093BC001092A20226CF85EC8093B6
:101E3000BC001092A20280914802803230F4E091FE
:101E40004802F0E0E85DFD4F10826091480270E0CA
:101E5000E0914E02F0914F0288E292E009951092D3
:101E600048020ACF1092800234CF1F920F920FB611
:101E70000F9211242F933F934F935F936F937F9310
:101E80008F939F93AF93BF93CF93DF93EF93FF9382
:101E90008091E401C0916903D0E087FF24C01092D3
:101EA0008500109284008091E4018F5F8093E401AB
:101EB0008091E401082E000C990B8C179D0724F4E7
:101EC0008091E4018C30C4F1809184009091850070
:101ED000049680349C4908F47AC0809184009091E3
:101EE0008500049676C08091E401082E000C990BC1
:101EF0008C179D07C4F6E091E4018E2FEE0F990B2D
:101F0000FC01EE0FFF1FE80FF91FEB5BFC4F808118
:101F100086FFC9CFE091E4018E2FEE0F990BFC01F3
:101F2000EE0FFF1FE80FF91FEB5BFC4F808160E0B5
:101F30008F730E942602B7CF2091840030918500D4
:101F4000E091E4018E2FEE0F990BFC01EE0FFF1FC5
:101F5000E80FF91FEB5BFC4F81819281820F931F89
:101F60009093890080938800E091E4018E2FEE0F1A
:101F7000990BFC01EE0FFF1FE80FF91FEB5BFC4F05
:101F8000808186FF11C0E091E4018E2FEE0F990B46
:101F9000FC01EE0FFF1FE80FF91FEB5BFC4F808188
:101FA00061E08F730E942602FF91EF91DF91CF9144
:101FB000BF91AF919F918F917F916F915F914F9161
:101FC0003F912F910F900FBE0F901F90189580E4B6
:101FD0009CE990938900809388008FEF8093E401BF
:101FE000E3CFCF92DF92EF92FF920F931F93E82FF0
:101FF000F92F05C0015011092109310961F19081C2
:1020000096239417B9F305C001501109210931092C
:1020100011F1908196239413F7CFC12CD12CE12C90
:10202000F12C0AC08FEFC81AD80AE80AF80A0C1572
:102030001D052E053F0579F080818623841791F3D5
:102040006C2D7D2D8E2D9F2D1F910F91FF90EF9068
:10205000DF90CF90089560E070E080E090E01F9105
:102060000F91FF90EF90DF90CF9008951092AB0208
:102070001092AA0288EE93E0A0E0B0E08093AC0258
:102080009093AD02A093AE02B093AF022AE031E08C
:102090003093A9022093A80225EC30E03093B502DA
:1020A0002093B40224EC30E03093B7022093B602C0
:1020B00020EC30E03093B9022093B80221EC30E0FC
:1020C0003093BB022093BA0222EC30E03093BD0281
:1020D0002093BC0226EC30E03093BF022093BE0276
:1020E0001092C1021092C2021092C3021092C40256
:1020F00010926D0310926C0380936E0390936F03A4
:10210000A0937003B09371038CE191E090936B0303
:1021100080936A03809169038C3070F591E0980F89
:10212000909369038093820390E0FC01EE0FFF1F00
:10213000E80FF91FEB5BFC4F88EB9BE092838183F8
:102140008EE291E0909377038093760387E390E0AB
:10215000A0E0B0E080937C0390937D03A0937E0386
:10216000B0937F0388E2809379038AE693E09093AB
:102170007B0380937A0308958FEF80938203E0CFEF
:10218000789484B5826084BD84B5816084BD85B552
:10219000826085BD85B5816085BD80916E0081605E
:1021A00080936E0010928100809181008260809304
:1021B0008100809181008160809381008091800006
:1021C0008160809380008091B10084608093B10031
:1021D0008091B00081608093B00080917A0084602B
:1021E00080937A0080917A00826080937A00809157
:1021F0007A00816080937A0080917A008068809371
:102200007A001092C100E091B802F091B90282E028
:102210008083E091B402F091B5021082E091B602A1
:10222000F091B70280E180831092C002E091BC027D
:10223000F091BD0286E08083E091BA02F091BB028A
:10224000808180618083E091BA02F091BB0280813D
:1022500088608083E091BA02F091BB02808180683F
:102260008083E091BA02F091BB0280818F7D8083F0
:102270006AE070E080E090E00E94250361E084E085
:102280000E94720261E086E00E94720261E083E0D7
:102290000E94720261E085E00E94720261E087E0C4
:1022A0000E94720260E088E00E94720280918203C4
:1022B0008C3008F051C061E082E00E94720280918F
:1022C0008203282F30E0F901EE0FFF1FE20FF31F0A
:1022D000EB5BFC4F9081907C926090831092830323
:1022E000109284032CE0622F0E947E16829FB00120
:1022F000112430E020E0AB01420F531FFA01EE0F32
:10230000FF1FE40FF51FEB5BFC4F908196FD16C09D
:102310002F5F3F4F2C30310571F781110FC01092A4
:10232000800082E0809381001092850010928400EA
:10233000B19A80916F00826080936F00E091820378
:102340008E2F90E0FC01EE0FFF1FE80FF91FEB5BF3
:10235000FC4F8081806480830E943B0680EA91E08C
:102360000E94A2060E943B0644E00E94F3068DE90B
:1023700091E00E94A2061092530210925202109213
:102380005502109254020E94800387E191E09093DD
:1023900051028093500288E191E090934F02809324
:1023A0004E020E94CF07803A79F068EE73E080E039
:1023B00090E00E9425030E94CF07803A29F082EB2B
:1023C00091E00E94A206FFCF90E080E00E942906E3
:1023D00060E28FE390E00E94FB056EE170E080E038
:1023E00090E00E9425030E94CF07803A29F06AE01E
:1023F00070E080E090E0F5CF62E370E080E090E094
:102400000E94250360E08EE390E00E94FB056AE0F5
:1024100070E080E090E00E94250360E087E090E0BB
:102420000E94FB0560E08FE390E00E94FB056AE0FC
:1024300070E080E090E00E9425038CE090E00E9434
:10244000290664E170E080E090E00E94250368EED8
:1024500073E080E090E00E942503C0918003D0915A
:10246000810390E080E00E94290669E170E080E04D
:1024700090E00E94250360E087E090E00E94FB0569
:1024800060E88FE390E00E94FB056AE070E080E086
:1024900090E00E942503CE010E94290664E170E0CD
:1024A00080E090E00E94250330E0832E30E0932E00
:1024B00084EB90E00E94B20064EF71E080E090E075
:1024C0000E942503C6E0D0E044EB5AE060E070E0F3
:1024D000CB010E940509A12CB12C8CE8C82E82E406
:1024E000D82EE12CF12C00E711E420E030E040E6AA
:1024F00050E46FEF70E084E690E00E94C40A70E060
:1025000060E090E080E00E946A0690E080E00E9437
:10251000B20044EA5AE0C601B5010E940509A12CA7
:10252000B12C6501E12CF12C08EC11E426E636E62D
:1025300046EE5FE364E670E08FEF90E00E94C40A2D
:1025400070E060E090E080E00E946A0684EB90E03A
:102550000E94B200219709F0B7CF70E060E090E0F0
:1025600080E00E946A0660E27EE480E090E00E94E3
:1025700025038114910409F49BCF0E9483018823D1
:1025800009F496CF0E94000093CF052E97FB1EF40E
:1025900000940E94DC1257FD07D00E94F71207FC3E
:1025A00003D04EF40C94DC12509540953095219553
:1025B0003F4F4F4F5F4F089590958095709561956F
:1025C0007F4F8F4F9F4F08950E941913A59F900D25
:1025D000B49F900DA49F800D911D11240895B7FF05
:1025E0000C94E4120E94E412821B930B0895A1E262
:1025F0001A2EAA1BBB1BFD010DC0AA1FBB1FEE1F7D
:10260000FF1FA217B307E407F50720F0A21BB30BC7
:10261000E40BF50B661F771F881F991F1A9469F743
:1026200060957095809590959B01AC01BD01CF019F
:102630000895A29FB001B39FC001A39F700D811D9B
:102640001124911DB29F700D811D1124911D0895BB
:102650005058BB27AA270E9440130C9483150E9450
:102660004A1538F00E94511520F039F49F3F19F4B3
:1026700026F40C9420150EF4E095E7FB0C941A1543
:10268000E92F0E94A81558F3BA1762077307840749
:10269000950720F079F4A6F50C94CA150EF4E09590
:1026A0000B2EBA2FA02D0B01B90190010C01CA010C
:1026B000A0011124FF27591B99F0593F50F4503EB7
:1026C00068F11A16F040A22F232F342F4427585FA9
:1026D000F3CF469537952795A795F0405395C9F7C1
:1026E0007EF41F16BA0B620B730B840BBAF0915079
:1026F000A1F0FF0FBB1F661F771F881FC2F70EC018
:10270000BA0F621F731F841F48F4879577956795EA
:10271000B795F7959E3F08F0B0CF9395880F08F0D6
:102720009927EE0F9795879508950E944A1560F0B6
:1027300080E891E009F49EEF0E94511528F040E8EE
:1027400051E071F45EEF0CC00C9420150C94CA1586
:10275000E92FE0780E94A81540F3092E052AB1F36D
:10276000261737074807590738F00E2E07F8E025D7
:1027700069F0E025E0640AC0EF6307F8009407FA07
:10278000DB01B9019D01DC01CA01AD01EF930E949B
:1027900028140E9483150E94D8135F91552339F0A5
:1027A0002BED3FE049E450FD49EC0C9429130895CA
:1027B000DF93DD27B92FBF7740E85FE316161706D2
:1027C00048075B0718F4D92F0E94D6159F938F9363
:1027D0007F936F930E945316E8E6F0E00E94231562
:1027E0000E9483152F913F914F915F910E94F115A7
:1027F000DD2351F09058A2EA2AED3FE049EC5FE377
:10280000D0785D270E944013DF910C9483150E94BD
:10281000F61408F481E008950E945A15E3950C948B
:1028200094150E9425140C9483150E94511558F09C
:102830000E944A1540F029F45F3F29F00C941A15C4
:1028400051110C94CB150C9420150E94A81568F317
:102850009923B1F3552391F3951B550BBB27AA2759
:1028600062177307840738F09F5F5F4F220F331F93
:10287000441FAA1FA9F335D00E2E3AF0E0E832D05B
:1028800091505040E695001CCAF72BD0FE2F29D05E
:10289000660F771F881FBB1F261737074807AB0730
:1028A000B0E809F0BB0B802DBF01FF2793585F4FA5
:1028B0003AF09E3F510578F00C941A150C94CB1504
:1028C0005F3FE4F3983ED4F3869577956795B79587
:1028D000F7959F5FC9F7880F911D9695879597F992
:1028E0000895E1E0660F771F881FBB1F621773070B
:1028F0008407BA0720F0621B730B840BBA0BEE1F20
:1029000088F7E09508950E948A146894B1110C9498
:10291000CB1508950E94B01588F09F5798F0B92FF5
:102920009927B751B0F0E1F0660F771F881F991F04
:102930001AF0BA95C9F714C0B13091F00E94CA15C7
:10294000B1E008950C94CA15672F782F8827B85FD7
:1029500039F0B93FCCF3869577956795B395D9F75C
:102960003EF490958095709561957F4F8F4F9F4F66
:102970000895E89409C097FB3EF490958095709572
:1029800061957F4F8F4F9F4F9923A9F0F92F96E9BB
:10299000BB279395F695879577956795B795F11130
:1029A000F8CFFAF4BB0F11F460FF1BC06F5F7F4FCD
:1029B0008F4F9F4F16C0882311F096E911C07723DF
:1029C00021F09EE8872F762F05C0662371F096E8E8
:1029D000862F70E060E02AF09A95660F771F881FB7
:1029E000DAF7880F9695879597F90895990F00085B
:1029F000550FAA0BE0E8FEEF16161706E807F907D1
:102A0000C0F012161306E407F50798F0621B730B6B
:102A1000840B950B39F40A2661F0232B242B252BEC
:102A200021F408950A2609F4A140A6958FEF811D8F
:102A3000811D089597F99F6780E870E060E0089530
:102A40009FEF80EC0895DF93CF931F930F93FF9236
:102A5000EF92DF927B018C01689406C0DA2EEF01C1
:102A60000E94F115FE01E894A591259135914591BB
:102A70005591A6F3EF010E944013FE019701A801B2
:102A8000DA9469F7DF90EF90FF900F911F91CF914B
:102A9000DF91089500240A941616170618060906F1
:102AA000089500240A9412161306140605060895C4
:102AB0000C9420150E94B015D8F3E894E0E0BB27F1
:102AC0009F57F0F02AED3FE049EC06C0EE0FBB0F38
:102AD000661F771F881F28F0B23A620773078407C2
:102AE00028F0B25A620B730B840BE3959A9572F738
:102AF000803830F49A95BB0F661F771F881FD2F776
:102B000090480C945E16092E0394000C11F488234F
:102B100052F0BB0F40F4BF2B11F460FF04C06F5F95
:102B20007F4F8F4F9F4F0895EF93E0FF07C0A2EABA
:102B30002AED3FE049EC5FEB0E9440130E948315B1
:102B40000F90039401FC9058E5E9F0E00C946A16AC
:102B500057FD9058440F551F59F05F3F71F047954E
:102B6000880F97FB991F61F09F3F79F08795089533
:102B7000121613061406551FF2CF4695F1DF08C052
:102B8000161617061806991FF1CF8695710561056F
:102B900008940895E894BB2766277727CB0197F917
:102BA00008950E94F61408F48FEF08959B01AC017C
:102BB00060E070E080E89FE30C9411140E94F1152E
:102BC0000C9483150E944A1538F00E94511520F08C
:102BD000952311F00C941A150C94201511240C94C3
:102BE000CB150E94A81570F3959FC1F3950F50E087
:102BF000551F629FF001729FBB27F00DB11D639FAF
:102C0000AA27F00DB11DAA1F649F6627B00DA11D54
:102C1000661F829F2227B00DA11D621F739FB00DFA
:102C2000A11D621F839FA00D611D221F749F33276A
:102C3000A00D611D231F849F600D211D822F762F03
:102C40006A2F11249F5750409AF0F1F088234AF0E0
:102C5000EE0FFF1FBB1F661F771F881F915050404C
:102C6000A9F79E3F510580F00C941A150C94CB15D2
:102C70005F3FE4F3983ED4F3869577956795B795D3
:102C8000F795E7959F5FC1F7FE2B880F911D9695ED
:102C9000879597F908959F930E945A150F9007FC06
:102CA000EE5F0C9494159B01AC010C94DE150E9410
:102CB000F614880B990B08959F3F31F0915020F442
:102CC000879577956795B795880F911D9695879508
:102CD00097F908959F938F937F936F93FF93EF934B
:102CE0009B01AC010E94DE15EF91FF910E9423151C
:102CF0002F913F914F915F910C94DE15991B79E0D4
:102D000004C0991F961708F0961B881F7A95C9F77B
:102D100080950895EE0FFF1F0590F491E02D099422
:102D20000F931F93CF93DF938230910510F482E0CD
:102D300090E0E0918703F091880330E020E0B0E07C
:102D4000A0E0309799F42115310509F44AC0281BF9
:102D5000390B24303105D8F58A819B8161157105C5
:102D600089F1FB0193838283FE0111C0408151816F
:102D70000281138148175907E0F04817590799F461
:102D8000109761F012960C93129713961C9332963B
:102D9000CF01DF91CF911F910F9108950093870389
:102DA00010938803F4CF2115310551F042175307D2
:102DB00038F0A901DB019A01BD01DF01F801C1CFA3
:102DC000EF01F9CF9093880380938703CDCFFE0165
:102DD000E20FF31F819391932250310939832883A5
:102DE000D7CF2091850330918603232B41F4209186
:102DF00002013091030130938603209385032091D3
:102E00000001309101012115310541F42DB73EB784
:102E10004091040150910501241B350BE09185037D
:102E2000F0918603E217F307A0F42E1B3F0B28173F
:102E3000390778F0AC014E5F5F4F2417350748F033
:102E40004E0F5F1F509386034093850381939193A8
:102E50009FCFF0E0E0E09CCFCF93DF930097E9F0C5
:102E6000FC01329713821282A0918703B0918803EC
:102E7000ED0130E020E01097A1F420813181820F34
:102E8000931F20918503309186032817390709F095
:102E900061C0F0938603E0938503DF91CF9108959D
:102EA000EA01CE17DF07E8F54A815B819E014115F3
:102EB0005105B1F7E901FB83EA8349915991C40FA8
:102EC000D51FEC17FD0761F4808191810296840F74
:102ED000951FE90199838883828193819B838A83EB
:102EE000F0E0E0E012968D919C9113970097B9F570
:102EF0002D913C911197CD010296820F931F209145
:102F00008503309186032817390739F6309751F534
:102F10001092880310928703B0938603A0938503D1
:102F2000BCCFD383C28340815181840F951FC817C2
:102F3000D90761F44E5F5F4F88819981480F591F0F
:102F4000518340838A819B8193838283211531053C
:102F500009F0B0CFF0938803E09387039ECFFD0183
:102F6000DC01C0CF13821282D7CFFB01DC014150BC
:102F7000504048F001900D920020C9F701C01D9209
:102F800041505040E0F70895F894FFCF00008903C6
:102F9000800000000000B901190146010602770116
:102FA0005501690100000000E504B80438068E04EC
:102FB000B1049E048F04000000005703FF0758036C
:102FC0000108AF096E616E00696E66006F7666007B
:102FD000424E4F3035350072696768742D66616303
:102FE000696E672C206C65667453706565643A2061
:102FF0000009726967687453706565643A20000956
:1030000063757272656E7444697374616E63653A58
:10301000200009616E676C653A200009616E676C7B
:10302000654572726F723A20000D0A004261747435
:1030300065727920766F6C746167653A20004E6F17
:1030400020424E4F30353520646574656374656485
:103050002C20436865636B20776972696E67206F07
:0C306000722049324320414444522100B8
:107E0000112484B714BE81FFF0D085E080938100F7
:107E100082E08093C00088E18093C10086E0809377
:107E2000C20080E18093C4008EE0C9D0259A86E02C
:107E300020E33CEF91E0309385002093840096BBD3
:107E4000B09BFECF1D9AA8958150A9F7CC24DD24C4
:107E500088248394B5E0AB2EA1E19A2EF3E0BF2EE7
:107E6000A2D0813461F49FD0082FAFD0023811F036
:107E7000013811F484E001C083E08DD089C08234E0
:107E800011F484E103C0853419F485E0A6D080C0E4
:107E9000853579F488D0E82EFF2485D0082F10E0AE
:107EA000102F00270E291F29000F111F8ED06801E7
:107EB0006FC0863521F484E090D080E0DECF843638
:107EC00009F040C070D06FD0082F6DD080E0C81688
:107ED00080E7D80618F4F601B7BEE895C0E0D1E017
:107EE00062D089930C17E1F7F0E0CF16F0E7DF06D8
:107EF00018F0F601B7BEE89568D007B600FCFDCFD4
:107F0000A601A0E0B1E02C9130E011968C91119780
:107F100090E0982F8827822B932B1296FA010C0160
:107F200087BEE89511244E5F5F4FF1E0A038BF0790
:107F300051F7F601A7BEE89507B600FCFDCF97BE46
:107F4000E89526C08437B1F42ED02DD0F82E2BD052
:107F50003CD0F601EF2C8F010F5F1F4F84911BD097
:107F6000EA94F801C1F70894C11CD11CFA94CF0C13
:107F7000D11C0EC0853739F428D08EE10CD085E9AC
:107F80000AD08FE07ACF813511F488E018D01DD067
:107F900080E101D065CF982F8091C00085FFFCCF94
:107FA0009093C60008958091C00087FFFCCF809118
:107FB000C00084FD01C0A8958091C6000895E0E648
:107FC000F0E098E1908380830895EDDF803219F02E
:107FD00088E0F5DFFFCF84E1DECF1F93182FE3DFCA
:107FE0001150E9F7F2DF1F91089580E0E8DFEE27F6
:047FF000FF270994CA
:027FFE00040479
:00000001FF
